{
  "_format": "hh-sol-artifact-1",
  "contractName": "RandomNumber",
  "sourceName": "contracts/RandomNumber.sol",
  "abi": [
    {
      "inputs": [
        {
          "internalType": "string",
          "name": "_seed",
          "type": "string"
        },
        {
          "internalType": "string",
          "name": "_name",
          "type": "string"
        },
        {
          "internalType": "string",
          "name": "_version",
          "type": "string"
        }
      ],
      "stateMutability": "nonpayable",
      "type": "constructor"
    },
    {
      "inputs": [
        {
          "internalType": "string",
          "name": "_tokenFromUniswap",
          "type": "string"
        },
        {
          "internalType": "uint256",
          "name": "_from",
          "type": "uint256"
        },
        {
          "internalType": "uint256",
          "name": "_to",
          "type": "uint256"
        },
        {
          "internalType": "bytes",
          "name": "_signature",
          "type": "bytes"
        }
      ],
      "name": "_getRandomNumberInRange",
      "outputs": [
        {
          "internalType": "uint256",
          "name": "",
          "type": "uint256"
        }
      ],
      "stateMutability": "view",
      "type": "function"
    }
  ],
  "bytecode": "0x6101406040523480156200001257600080fd5b5060405162001b4338038062001b438339818101604052810190620000389190620002d6565b818160008280519060200120905060008280519060200120905060007f8b73c3c69bb8fe3d512ecc4cf759cc79239f7b179b0ffacaa9a75d522b39400f90508260e081815250508161010081815250504660a08181525050620000a38184846200010760201b60201c565b608081815250503073ffffffffffffffffffffffffffffffffffffffff1660c08173ffffffffffffffffffffffffffffffffffffffff168152505080610120818152505050505050508260009081620000fd9190620005da565b505050506200078f565b600083838346306040516020016200012495949392919062000732565b6040516020818303038152906040528051906020012090509392505050565b6000604051905090565b600080fd5b600080fd5b600080fd5b600080fd5b6000601f19601f8301169050919050565b7f4e487b7100000000000000000000000000000000000000000000000000000000600052604160045260246000fd5b620001ac8262000161565b810181811067ffffffffffffffff82111715620001ce57620001cd62000172565b5b80604052505050565b6000620001e362000143565b9050620001f18282620001a1565b919050565b600067ffffffffffffffff82111562000214576200021362000172565b5b6200021f8262000161565b9050602081019050919050565b60005b838110156200024c5780820151818401526020810190506200022f565b60008484015250505050565b60006200026f6200026984620001f6565b620001d7565b9050828152602081018484840111156200028e576200028d6200015c565b5b6200029b8482856200022c565b509392505050565b600082601f830112620002bb57620002ba62000157565b5b8151620002cd84826020860162000258565b91505092915050565b600080600060608486031215620002f257620002f16200014d565b5b600084015167ffffffffffffffff81111562000313576200031262000152565b5b6200032186828701620002a3565b935050602084015167ffffffffffffffff81111562000345576200034462000152565b5b6200035386828701620002a3565b925050604084015167ffffffffffffffff81111562000377576200037662000152565b5b6200038586828701620002a3565b9150509250925092565b600081519050919050565b7f4e487b7100000000000000000000000000000000000000000000000000000000600052602260045260246000fd5b60006002820490506001821680620003e257607f821691505b602082108103620003f857620003f76200039a565b5b50919050565b60008190508160005260206000209050919050565b60006020601f8301049050919050565b600082821b905092915050565b600060088302620004627fffffffffffffffffffffffffffffffffffffffffffffffffffffffffffffffff8262000423565b6200046e868362000423565b95508019841693508086168417925050509392505050565b6000819050919050565b6000819050919050565b6000620004bb620004b5620004af8462000486565b62000490565b62000486565b9050919050565b6000819050919050565b620004d7836200049a565b620004ef620004e682620004c2565b84845462000430565b825550505050565b600090565b62000506620004f7565b62000513818484620004cc565b505050565b5b818110156200053b576200052f600082620004fc565b60018101905062000519565b5050565b601f8211156200058a576200055481620003fe565b6200055f8462000413565b810160208510156200056f578190505b620005876200057e8562000413565b83018262000518565b50505b505050565b600082821c905092915050565b6000620005af600019846008026200058f565b1980831691505092915050565b6000620005ca83836200059c565b9150826002028217905092915050565b620005e5826200038f565b67ffffffffffffffff81111562000601576200060062000172565b5b6200060d8254620003c9565b6200061a8282856200053f565b600060209050601f8311600181146200065257600084156200063d578287015190505b620006498582620005bc565b865550620006b9565b601f1984166200066286620003fe565b60005b828110156200068c5784890151825560018201915060208501945060208101905062000665565b86831015620006ac5784890151620006a8601f8916826200059c565b8355505b6001600288020188555050505b505050505050565b6000819050919050565b620006d681620006c1565b82525050565b620006e78162000486565b82525050565b600073ffffffffffffffffffffffffffffffffffffffff82169050919050565b60006200071a82620006ed565b9050919050565b6200072c816200070d565b82525050565b600060a082019050620007496000830188620006cb565b620007586020830187620006cb565b620007676040830186620006cb565b620007766060830185620006dc565b62000785608083018462000721565b9695505050505050565b60805160a05160c05160e0516101005161012051611364620007df60003960006103f501526000610437015260006104160152600061034b015260006103a1015260006103ca01526113646000f3fe608060405234801561001057600080fd5b506004361061002b5760003560e01c8063da47758d14610030575b600080fd5b61004a60048036038101906100459190610998565b610060565b6040516100579190610a46565b60405180910390f35b60008383116100a4576040517f08c379a000000000000000000000000000000000000000000000000000000000815260040161009b90610abe565b60405180910390fd5b3373ffffffffffffffffffffffffffffffffffffffff166100c586846101b3565b73ffffffffffffffffffffffffffffffffffffffff161461011b576040517f08c379a000000000000000000000000000000000000000000000000000000000815260040161011290610b2a565b60405180910390fd5b60006001858561012b9190610b79565b6101359190610bad565b4344423360008b60405160200161015196959493929190610de5565b604051602081830303815290604052805190602001206040516020016101779190610e78565b6040516020818303038152906040528051906020012060001c61019a9190610ec2565b905084816101a89190610bad565b915050949350505050565b60008061020e7f5fc8a0c859bbccf687ea8999fb140a14411775f4898809650c92c138532c8b3485805190602001206040516020016101f3929190610f02565b60405160208183030381529060405280519060200120610306565b9050600061021c8285610320565b90503373ffffffffffffffffffffffffffffffffffffffff168173ffffffffffffffffffffffffffffffffffffffff161461028c576040517f08c379a000000000000000000000000000000000000000000000000000000000815260040161028390610f9d565b60405180910390fd5b600073ffffffffffffffffffffffffffffffffffffffff168173ffffffffffffffffffffffffffffffffffffffff16036102fb576040517f08c379a00000000000000000000000000000000000000000000000000000000081526004016102f29061102f565b60405180910390fd5b809250505092915050565b6000610319610313610347565b83610461565b9050919050565b600080600061032f8585610494565b9150915061033c816104e5565b819250505092915050565b60007f000000000000000000000000000000000000000000000000000000000000000073ffffffffffffffffffffffffffffffffffffffff163073ffffffffffffffffffffffffffffffffffffffff161480156103c357507f000000000000000000000000000000000000000000000000000000000000000046145b156103f0577f0000000000000000000000000000000000000000000000000000000000000000905061045e565b61045b7f00000000000000000000000000000000000000000000000000000000000000007f00000000000000000000000000000000000000000000000000000000000000007f000000000000000000000000000000000000000000000000000000000000000061064b565b90505b90565b6000828260405160200161047692919061109b565b60405160208183030381529060405280519060200120905092915050565b60008060418351036104d55760008060006020860151925060408601519150606086015160001a90506104c987828585610685565b945094505050506104de565b60006002915091505b9250929050565b600060048111156104f9576104f86110d2565b5b81600481111561050c5761050b6110d2565b5b03156106485760016004811115610526576105256110d2565b5b816004811115610539576105386110d2565b5b03610579576040517f08c379a00000000000000000000000000000000000000000000000000000000081526004016105709061114d565b60405180910390fd5b6002600481111561058d5761058c6110d2565b5b8160048111156105a05761059f6110d2565b5b036105e0576040517f08c379a00000000000000000000000000000000000000000000000000000000081526004016105d7906111b9565b60405180910390fd5b600360048111156105f4576105f36110d2565b5b816004811115610607576106066110d2565b5b03610647576040517f08c379a000000000000000000000000000000000000000000000000000000000815260040161063e9061124b565b60405180910390fd5b5b50565b6000838383463060405160200161066695949392919061127a565b6040516020818303038152906040528051906020012090509392505050565b6000807f7fffffffffffffffffffffffffffffff5d576e7357a4501ddfe92f46681b20a08360001c11156106c057600060039150915061075e565b6000600187878787604051600081526020016040526040516106e594939291906112e9565b6020604051602081039080840390855afa158015610707573d6000803e3d6000fd5b505050602060405103519050600073ffffffffffffffffffffffffffffffffffffffff168173ffffffffffffffffffffffffffffffffffffffff16036107555760006001925092505061075e565b80600092509250505b94509492505050565b6000604051905090565b600080fd5b600080fd5b600080fd5b600080fd5b6000601f19601f8301169050919050565b7f4e487b7100000000000000000000000000000000000000000000000000000000600052604160045260246000fd5b6107ce82610785565b810181811067ffffffffffffffff821117156107ed576107ec610796565b5b80604052505050565b6000610800610767565b905061080c82826107c5565b919050565b600067ffffffffffffffff82111561082c5761082b610796565b5b61083582610785565b9050602081019050919050565b82818337600083830152505050565b600061086461085f84610811565b6107f6565b9050828152602081018484840111156108805761087f610780565b5b61088b848285610842565b509392505050565b600082601f8301126108a8576108a761077b565b5b81356108b8848260208601610851565b91505092915050565b6000819050919050565b6108d4816108c1565b81146108df57600080fd5b50565b6000813590506108f1816108cb565b92915050565b600067ffffffffffffffff82111561091257610911610796565b5b61091b82610785565b9050602081019050919050565b600061093b610936846108f7565b6107f6565b90508281526020810184848401111561095757610956610780565b5b610962848285610842565b509392505050565b600082601f83011261097f5761097e61077b565b5b813561098f848260208601610928565b91505092915050565b600080600080608085870312156109b2576109b1610771565b5b600085013567ffffffffffffffff8111156109d0576109cf610776565b5b6109dc87828801610893565b94505060206109ed878288016108e2565b93505060406109fe878288016108e2565b925050606085013567ffffffffffffffff811115610a1f57610a1e610776565b5b610a2b8782880161096a565b91505092959194509250565b610a40816108c1565b82525050565b6000602082019050610a5b6000830184610a37565b92915050565b600082825260208201905092915050565b7f52616e6765206973206e6f742076616c69640000000000000000000000000000600082015250565b6000610aa8601283610a61565b9150610ab382610a72565b602082019050919050565b60006020820190508181036000830152610ad781610a9b565b9050919050565b7f4e6f7420696e76616c6964000000000000000000000000000000000000000000600082015250565b6000610b14600b83610a61565b9150610b1f82610ade565b602082019050919050565b60006020820190508181036000830152610b4381610b07565b9050919050565b7f4e487b7100000000000000000000000000000000000000000000000000000000600052601160045260246000fd5b6000610b84826108c1565b9150610b8f836108c1565b9250828203905081811115610ba757610ba6610b4a565b5b92915050565b6000610bb8826108c1565b9150610bc3836108c1565b9250828201905080821115610bdb57610bda610b4a565b5b92915050565b6000819050919050565b610bfc610bf7826108c1565b610be1565b82525050565b600073ffffffffffffffffffffffffffffffffffffffff82169050919050565b6000610c2d82610c02565b9050919050565b60008160601b9050919050565b6000610c4c82610c34565b9050919050565b6000610c5e82610c41565b9050919050565b610c76610c7182610c22565b610c53565b82525050565b7f4e487b7100000000000000000000000000000000000000000000000000000000600052602260045260246000fd5b60006002820490506001821680610cc357607f821691505b602082108103610cd657610cd5610c7c565b5b50919050565b600081905092915050565b60008190508160005260206000209050919050565b60008154610d0981610cab565b610d138186610cdc565b94506001821660008114610d2e5760018114610d4357610d76565b60ff1983168652811515820286019350610d76565b610d4c85610ce7565b60005b83811015610d6e57815481890152600182019150602081019050610d4f565b838801955050505b50505092915050565b600081519050919050565b60005b83811015610da8578082015181840152602081019050610d8d565b60008484015250505050565b6000610dbf82610d7f565b610dc98185610cdc565b9350610dd9818560208601610d8a565b80840191505092915050565b6000610df18289610beb565b602082019150610e018288610beb565b602082019150610e118287610beb565b602082019150610e218286610c65565b601482019150610e318285610cfc565b9150610e3d8284610db4565b9150819050979650505050505050565b6000819050919050565b6000819050919050565b610e72610e6d82610e4d565b610e57565b82525050565b6000610e848284610e61565b60208201915081905092915050565b7f4e487b7100000000000000000000000000000000000000000000000000000000600052601260045260246000fd5b6000610ecd826108c1565b9150610ed8836108c1565b925082610ee857610ee7610e93565b5b828206905092915050565b610efc81610e4d565b82525050565b6000604082019050610f176000830185610ef3565b610f246020830184610ef3565b9392505050565b7f4d65737361676556657269666965723a20696e76616c6964207369676e61747560008201527f7265000000000000000000000000000000000000000000000000000000000000602082015250565b6000610f87602283610a61565b9150610f9282610f2b565b604082019050919050565b60006020820190508181036000830152610fb681610f7a565b9050919050565b7f45434453415570677261646561626c653a20696e76616c6964207369676e617460008201527f7572650000000000000000000000000000000000000000000000000000000000602082015250565b6000611019602383610a61565b915061102482610fbd565b604082019050919050565b600060208201905081810360008301526110488161100c565b9050919050565b7f1901000000000000000000000000000000000000000000000000000000000000600082015250565b6000611085600283610cdc565b91506110908261104f565b600282019050919050565b60006110a682611078565b91506110b28285610e61565b6020820191506110c28284610e61565b6020820191508190509392505050565b7f4e487b7100000000000000000000000000000000000000000000000000000000600052602160045260246000fd5b7f45434453413a20696e76616c6964207369676e61747572650000000000000000600082015250565b6000611137601883610a61565b915061114282611101565b602082019050919050565b600060208201905081810360008301526111668161112a565b9050919050565b7f45434453413a20696e76616c6964207369676e6174757265206c656e67746800600082015250565b60006111a3601f83610a61565b91506111ae8261116d565b602082019050919050565b600060208201905081810360008301526111d281611196565b9050919050565b7f45434453413a20696e76616c6964207369676e6174757265202773272076616c60008201527f7565000000000000000000000000000000000000000000000000000000000000602082015250565b6000611235602283610a61565b9150611240826111d9565b604082019050919050565b6000602082019050818103600083015261126481611228565b9050919050565b61127481610c22565b82525050565b600060a08201905061128f6000830188610ef3565b61129c6020830187610ef3565b6112a96040830186610ef3565b6112b66060830185610a37565b6112c3608083018461126b565b9695505050505050565b600060ff82169050919050565b6112e3816112cd565b82525050565b60006080820190506112fe6000830187610ef3565b61130b60208301866112da565b6113186040830185610ef3565b6113256060830184610ef3565b9594505050505056fea2646970667358221220e631a12cfce2f960836cab658be3c515916eb0a4163c68c4af616e1031ca360c64736f6c63430008110033",
  "linkReferences": {},
  "deployedLinkReferences": {}
}