{
  "_format": "hh-sol-artifact-1",
  "contractName": "RandomNumber",
  "sourceName": "contracts/RandomNumber.sol",
  "abi": [
    {
      "inputs": [
        {
          "internalType": "string",
          "name": "_seed",
          "type": "string"
        }
      ],
      "stateMutability": "nonpayable",
      "type": "constructor"
    },
    {
      "inputs": [
        {
          "internalType": "string",
          "name": "_seed",
          "type": "string"
        },
        {
          "internalType": "uint256",
          "name": "_tokenFromUniswap",
          "type": "uint256"
        },
        {
          "internalType": "uint256",
          "name": "_from",
          "type": "uint256"
        },
        {
          "internalType": "uint256",
          "name": "_to",
          "type": "uint256"
        }
      ],
      "name": "_getRandomNumberInRange",
      "outputs": [
        {
          "internalType": "uint256",
          "name": "",
          "type": "uint256"
        }
      ],
      "stateMutability": "view",
      "type": "function"
    }
  ],
  "bytecode": "0x60806040523480156200001157600080fd5b5060405162000be638038062000be68339818101604052810190620000379190620001eb565b806000908162000048919062000487565b506000600181905550506200056e565b6000604051905090565b600080fd5b600080fd5b600080fd5b600080fd5b6000601f19601f8301169050919050565b7f4e487b7100000000000000000000000000000000000000000000000000000000600052604160045260246000fd5b620000c18262000076565b810181811067ffffffffffffffff82111715620000e357620000e262000087565b5b80604052505050565b6000620000f862000058565b9050620001068282620000b6565b919050565b600067ffffffffffffffff82111562000129576200012862000087565b5b620001348262000076565b9050602081019050919050565b60005b838110156200016157808201518184015260208101905062000144565b60008484015250505050565b6000620001846200017e846200010b565b620000ec565b905082815260208101848484011115620001a357620001a262000071565b5b620001b084828562000141565b509392505050565b600082601f830112620001d057620001cf6200006c565b5b8151620001e28482602086016200016d565b91505092915050565b60006020828403121562000204576200020362000062565b5b600082015167ffffffffffffffff81111562000225576200022462000067565b5b6200023384828501620001b8565b91505092915050565b600081519050919050565b7f4e487b7100000000000000000000000000000000000000000000000000000000600052602260045260246000fd5b600060028204905060018216806200028f57607f821691505b602082108103620002a557620002a462000247565b5b50919050565b60008190508160005260206000209050919050565b60006020601f8301049050919050565b600082821b905092915050565b6000600883026200030f7fffffffffffffffffffffffffffffffffffffffffffffffffffffffffffffffff82620002d0565b6200031b8683620002d0565b95508019841693508086168417925050509392505050565b6000819050919050565b6000819050919050565b600062000368620003626200035c8462000333565b6200033d565b62000333565b9050919050565b6000819050919050565b620003848362000347565b6200039c62000393826200036f565b848454620002dd565b825550505050565b600090565b620003b3620003a4565b620003c081848462000379565b505050565b5b81811015620003e857620003dc600082620003a9565b600181019050620003c6565b5050565b601f82111562000437576200040181620002ab565b6200040c84620002c0565b810160208510156200041c578190505b620004346200042b85620002c0565b830182620003c5565b50505b505050565b600082821c905092915050565b60006200045c600019846008026200043c565b1980831691505092915050565b600062000477838362000449565b9150826002028217905092915050565b62000492826200023c565b67ffffffffffffffff811115620004ae57620004ad62000087565b5b620004ba825462000276565b620004c7828285620003ec565b600060209050601f831160018114620004ff5760008415620004ea578287015190505b620004f6858262000469565b86555062000566565b601f1984166200050f86620002ab565b60005b82811015620005395784890151825560018201915060208501945060208101905062000512565b8683101562000559578489015162000555601f89168262000449565b8355505b6001600288020188555050505b505050505050565b610668806200057e6000396000f3fe608060405234801561001057600080fd5b506004361061002b5760003560e01c8063cd8404d614610030575b600080fd5b61004a600480360381019061004591906102cd565b610060565b604051610057919061035f565b60405180910390f35b60008282116100a4576040517f08c379a000000000000000000000000000000000000000000000000000000000815260040161009b906103d7565b60405180910390fd5b6000600184846100b49190610426565b6100be919061045a565b434442896001548a6040516020016100db96959493929190610520565b6040516020818303038152906040528051906020012060405160200161010191906105b7565b6040516020818303038152906040528051906020012060001c6101249190610601565b90508381610132919061045a565b915050949350505050565b6000604051905090565b600080fd5b600080fd5b600080fd5b600080fd5b6000601f19601f8301169050919050565b7f4e487b7100000000000000000000000000000000000000000000000000000000600052604160045260246000fd5b6101a48261015b565b810181811067ffffffffffffffff821117156101c3576101c261016c565b5b80604052505050565b60006101d661013d565b90506101e2828261019b565b919050565b600067ffffffffffffffff8211156102025761020161016c565b5b61020b8261015b565b9050602081019050919050565b82818337600083830152505050565b600061023a610235846101e7565b6101cc565b90508281526020810184848401111561025657610255610156565b5b610261848285610218565b509392505050565b600082601f83011261027e5761027d610151565b5b813561028e848260208601610227565b91505092915050565b6000819050919050565b6102aa81610297565b81146102b557600080fd5b50565b6000813590506102c7816102a1565b92915050565b600080600080608085870312156102e7576102e6610147565b5b600085013567ffffffffffffffff8111156103055761030461014c565b5b61031187828801610269565b9450506020610322878288016102b8565b9350506040610333878288016102b8565b9250506060610344878288016102b8565b91505092959194509250565b61035981610297565b82525050565b60006020820190506103746000830184610350565b92915050565b600082825260208201905092915050565b7f52616e6765206973206e6f742076616c69640000000000000000000000000000600082015250565b60006103c160128361037a565b91506103cc8261038b565b602082019050919050565b600060208201905081810360008301526103f0816103b4565b9050919050565b7f4e487b7100000000000000000000000000000000000000000000000000000000600052601160045260246000fd5b600061043182610297565b915061043c83610297565b9250828203905081811115610454576104536103f7565b5b92915050565b600061046582610297565b915061047083610297565b9250828201905080821115610488576104876103f7565b5b92915050565b6000819050919050565b6104a96104a482610297565b61048e565b82525050565b600081519050919050565b600081905092915050565b60005b838110156104e35780820151818401526020810190506104c8565b60008484015250505050565b60006104fa826104af565b61050481856104ba565b93506105148185602086016104c5565b80840191505092915050565b600061052c8289610498565b60208201915061053c8288610498565b60208201915061054c8287610498565b60208201915061055c82866104ef565b91506105688285610498565b6020820191506105788284610498565b602082019150819050979650505050505050565b6000819050919050565b6000819050919050565b6105b16105ac8261058c565b610596565b82525050565b60006105c382846105a0565b60208201915081905092915050565b7f4e487b7100000000000000000000000000000000000000000000000000000000600052601260045260246000fd5b600061060c82610297565b915061061783610297565b925082610627576106266105d2565b5b82820690509291505056fea264697066735822122033b1e4d2812c2925666d1f57ac49f3eca0cd165cf4cafef02adb13ad2721de1f64736f6c63430008110033",
  "linkReferences": {},
  "deployedLinkReferences": {}
}