{
  "_format": "hh-sol-artifact-1",
  "contractName": "RandomNumber",
  "sourceName": "contracts/RandomNumber.sol",
  "abi": [
    {
      "inputs": [
        {
          "internalType": "string",
          "name": "_seed",
          "type": "string"
        },
        {
          "internalType": "string",
          "name": "_name",
          "type": "string"
        },
        {
          "internalType": "string",
          "name": "_version",
          "type": "string"
        }
      ],
      "stateMutability": "nonpayable",
      "type": "constructor"
    },
    {
      "anonymous": false,
      "inputs": [
        {
          "indexed": true,
          "internalType": "address",
          "name": "addr",
          "type": "address"
        },
        {
          "indexed": false,
          "internalType": "uint256",
          "name": "number",
          "type": "uint256"
        }
      ],
      "name": "GetRandomNumber",
      "type": "event"
    },
    {
      "inputs": [
        {
          "internalType": "uint256",
          "name": "_tokenFromUniswap",
          "type": "uint256"
        },
        {
          "internalType": "uint256",
          "name": "_from",
          "type": "uint256"
        },
        {
          "internalType": "uint256",
          "name": "_to",
          "type": "uint256"
        },
        {
          "internalType": "bytes",
          "name": "_signature",
          "type": "bytes"
        }
      ],
      "name": "_getRandomNumberInRange",
      "outputs": [],
      "stateMutability": "nonpayable",
      "type": "function"
    }
  ],
  "bytecode": "0x6101406040523480156200001257600080fd5b5060405162001a6838038062001a688339818101604052810190620000389190620002d6565b818160008280519060200120905060008280519060200120905060007f8b73c3c69bb8fe3d512ecc4cf759cc79239f7b179b0ffacaa9a75d522b39400f90508260e081815250508161010081815250504660a08181525050620000a38184846200010760201b60201c565b608081815250503073ffffffffffffffffffffffffffffffffffffffff1660c08173ffffffffffffffffffffffffffffffffffffffff168152505080610120818152505050505050508260009081620000fd9190620005da565b505050506200078f565b600083838346306040516020016200012495949392919062000732565b6040516020818303038152906040528051906020012090509392505050565b6000604051905090565b600080fd5b600080fd5b600080fd5b600080fd5b6000601f19601f8301169050919050565b7f4e487b7100000000000000000000000000000000000000000000000000000000600052604160045260246000fd5b620001ac8262000161565b810181811067ffffffffffffffff82111715620001ce57620001cd62000172565b5b80604052505050565b6000620001e362000143565b9050620001f18282620001a1565b919050565b600067ffffffffffffffff82111562000214576200021362000172565b5b6200021f8262000161565b9050602081019050919050565b60005b838110156200024c5780820151818401526020810190506200022f565b60008484015250505050565b60006200026f6200026984620001f6565b620001d7565b9050828152602081018484840111156200028e576200028d6200015c565b5b6200029b8482856200022c565b509392505050565b600082601f830112620002bb57620002ba62000157565b5b8151620002cd84826020860162000258565b91505092915050565b600080600060608486031215620002f257620002f16200014d565b5b600084015167ffffffffffffffff81111562000313576200031262000152565b5b6200032186828701620002a3565b935050602084015167ffffffffffffffff81111562000345576200034462000152565b5b6200035386828701620002a3565b925050604084015167ffffffffffffffff81111562000377576200037662000152565b5b6200038586828701620002a3565b9150509250925092565b600081519050919050565b7f4e487b7100000000000000000000000000000000000000000000000000000000600052602260045260246000fd5b60006002820490506001821680620003e257607f821691505b602082108103620003f857620003f76200039a565b5b50919050565b60008190508160005260206000209050919050565b60006020601f8301049050919050565b600082821b905092915050565b600060088302620004627fffffffffffffffffffffffffffffffffffffffffffffffffffffffffffffffff8262000423565b6200046e868362000423565b95508019841693508086168417925050509392505050565b6000819050919050565b6000819050919050565b6000620004bb620004b5620004af8462000486565b62000490565b62000486565b9050919050565b6000819050919050565b620004d7836200049a565b620004ef620004e682620004c2565b84845462000430565b825550505050565b600090565b62000506620004f7565b62000513818484620004cc565b505050565b5b818110156200053b576200052f600082620004fc565b60018101905062000519565b5050565b601f8211156200058a576200055481620003fe565b6200055f8462000413565b810160208510156200056f578190505b620005876200057e8562000413565b83018262000518565b50505b505050565b600082821c905092915050565b6000620005af600019846008026200058f565b1980831691505092915050565b6000620005ca83836200059c565b9150826002028217905092915050565b620005e5826200038f565b67ffffffffffffffff81111562000601576200060062000172565b5b6200060d8254620003c9565b6200061a8282856200053f565b600060209050601f8311600181146200065257600084156200063d578287015190505b620006498582620005bc565b865550620006b9565b601f1984166200066286620003fe565b60005b828110156200068c5784890151825560018201915060208501945060208101905062000665565b86831015620006ac5784890151620006a8601f8916826200059c565b8355505b6001600288020188555050505b505050505050565b6000819050919050565b620006d681620006c1565b82525050565b620006e78162000486565b82525050565b600073ffffffffffffffffffffffffffffffffffffffff82169050919050565b60006200071a82620006ed565b9050919050565b6200072c816200070d565b82525050565b600060a082019050620007496000830188620006cb565b620007586020830187620006cb565b620007676040830186620006cb565b620007766060830185620006dc565b62000785608083018462000721565b9695505050505050565b60805160a05160c05160e0516101005161012051611289620007df60003960006104390152600061047b0152600061045a0152600061038f015260006103e50152600061040e01526112896000f3fe608060405234801561001057600080fd5b506004361061002b5760003560e01c80635a2517f214610030575b600080fd5b61004a6004803603810190610045919061093b565b61004c565b005b82821161008e576040517f08c379a000000000000000000000000000000000000000000000000000000000815260040161008590610a1b565b60405180910390fd5b3373ffffffffffffffffffffffffffffffffffffffff166100af85836101fe565b73ffffffffffffffffffffffffffffffffffffffff1614610105576040517f08c379a00000000000000000000000000000000000000000000000000000000081526004016100fc90610a87565b60405180910390fd5b60016000815461011490610ad6565b9190508190555060006001848461012b9190610b1e565b6101359190610b52565b43444260015460008a60405160200161015396959493929190610caa565b604051602081830303815290604052805190602001206040516020016101799190610d41565b6040516020818303038152906040528051906020012060001c61019c9190610d8b565b90503373ffffffffffffffffffffffffffffffffffffffff167f596d86604cbb27f33882e92f1b25091d11c467ecb9b5b603a41967d06ef49ca785836101e29190610b52565b6040516101ef9190610dcb565b60405180910390a25050505050565b6000806102527f734fff2a04a48ef8e4c075d2d256796a5e56debb4990ef95df490f3bdbc5423485604051602001610237929190610df5565b6040516020818303038152906040528051906020012061034a565b905060006102608285610364565b90503373ffffffffffffffffffffffffffffffffffffffff168173ffffffffffffffffffffffffffffffffffffffff16146102d0576040517f08c379a00000000000000000000000000000000000000000000000000000000081526004016102c790610e90565b60405180910390fd5b600073ffffffffffffffffffffffffffffffffffffffff168173ffffffffffffffffffffffffffffffffffffffff160361033f576040517f08c379a000000000000000000000000000000000000000000000000000000000815260040161033690610f22565b60405180910390fd5b809250505092915050565b600061035d61035761038b565b836104a5565b9050919050565b600080600061037385856104d8565b9150915061038081610529565b819250505092915050565b60007f000000000000000000000000000000000000000000000000000000000000000073ffffffffffffffffffffffffffffffffffffffff163073ffffffffffffffffffffffffffffffffffffffff1614801561040757507f000000000000000000000000000000000000000000000000000000000000000046145b15610434577f000000000000000000000000000000000000000000000000000000000000000090506104a2565b61049f7f00000000000000000000000000000000000000000000000000000000000000007f00000000000000000000000000000000000000000000000000000000000000007f000000000000000000000000000000000000000000000000000000000000000061068f565b90505b90565b600082826040516020016104ba929190610f8e565b60405160208183030381529060405280519060200120905092915050565b60008060418351036105195760008060006020860151925060408601519150606086015160001a905061050d878285856106c9565b94509450505050610522565b60006002915091505b9250929050565b6000600481111561053d5761053c610fc5565b5b8160048111156105505761054f610fc5565b5b031561068c576001600481111561056a57610569610fc5565b5b81600481111561057d5761057c610fc5565b5b036105bd576040517f08c379a00000000000000000000000000000000000000000000000000000000081526004016105b490611040565b60405180910390fd5b600260048111156105d1576105d0610fc5565b5b8160048111156105e4576105e3610fc5565b5b03610624576040517f08c379a000000000000000000000000000000000000000000000000000000000815260040161061b906110ac565b60405180910390fd5b6003600481111561063857610637610fc5565b5b81600481111561064b5761064a610fc5565b5b0361068b576040517f08c379a00000000000000000000000000000000000000000000000000000000081526004016106829061113e565b60405180910390fd5b5b50565b600083838346306040516020016106aa95949392919061119f565b6040516020818303038152906040528051906020012090509392505050565b6000807f7fffffffffffffffffffffffffffffff5d576e7357a4501ddfe92f46681b20a08360001c11156107045760006003915091506107a2565b600060018787878760405160008152602001604052604051610729949392919061120e565b6020604051602081039080840390855afa15801561074b573d6000803e3d6000fd5b505050602060405103519050600073ffffffffffffffffffffffffffffffffffffffff168173ffffffffffffffffffffffffffffffffffffffff1603610799576000600192509250506107a2565b80600092509250505b94509492505050565b6000604051905090565b600080fd5b600080fd5b6000819050919050565b6107d2816107bf565b81146107dd57600080fd5b50565b6000813590506107ef816107c9565b92915050565b600080fd5b600080fd5b6000601f19601f8301169050919050565b7f4e487b7100000000000000000000000000000000000000000000000000000000600052604160045260246000fd5b610848826107ff565b810181811067ffffffffffffffff8211171561086757610866610810565b5b80604052505050565b600061087a6107ab565b9050610886828261083f565b919050565b600067ffffffffffffffff8211156108a6576108a5610810565b5b6108af826107ff565b9050602081019050919050565b82818337600083830152505050565b60006108de6108d98461088b565b610870565b9050828152602081018484840111156108fa576108f96107fa565b5b6109058482856108bc565b509392505050565b600082601f830112610922576109216107f5565b5b81356109328482602086016108cb565b91505092915050565b60008060008060808587031215610955576109546107b5565b5b6000610963878288016107e0565b9450506020610974878288016107e0565b9350506040610985878288016107e0565b925050606085013567ffffffffffffffff8111156109a6576109a56107ba565b5b6109b28782880161090d565b91505092959194509250565b600082825260208201905092915050565b7f52616e6765206973206e6f742076616c69640000000000000000000000000000600082015250565b6000610a056012836109be565b9150610a10826109cf565b602082019050919050565b60006020820190508181036000830152610a34816109f8565b9050919050565b7f4e6f7420696e76616c6964000000000000000000000000000000000000000000600082015250565b6000610a71600b836109be565b9150610a7c82610a3b565b602082019050919050565b60006020820190508181036000830152610aa081610a64565b9050919050565b7f4e487b7100000000000000000000000000000000000000000000000000000000600052601160045260246000fd5b6000610ae1826107bf565b91507fffffffffffffffffffffffffffffffffffffffffffffffffffffffffffffffff8203610b1357610b12610aa7565b5b600182019050919050565b6000610b29826107bf565b9150610b34836107bf565b9250828203905081811115610b4c57610b4b610aa7565b5b92915050565b6000610b5d826107bf565b9150610b68836107bf565b9250828201905080821115610b8057610b7f610aa7565b5b92915050565b6000819050919050565b610ba1610b9c826107bf565b610b86565b82525050565b7f4e487b7100000000000000000000000000000000000000000000000000000000600052602260045260246000fd5b60006002820490506001821680610bee57607f821691505b602082108103610c0157610c00610ba7565b5b50919050565b600081905092915050565b60008190508160005260206000209050919050565b60008154610c3481610bd6565b610c3e8186610c07565b94506001821660008114610c595760018114610c6e57610ca1565b60ff1983168652811515820286019350610ca1565b610c7785610c12565b60005b83811015610c9957815481890152600182019150602081019050610c7a565b838801955050505b50505092915050565b6000610cb68289610b90565b602082019150610cc68288610b90565b602082019150610cd68287610b90565b602082019150610ce68286610b90565b602082019150610cf68285610c27565b9150610d028284610b90565b602082019150819050979650505050505050565b6000819050919050565b6000819050919050565b610d3b610d3682610d16565b610d20565b82525050565b6000610d4d8284610d2a565b60208201915081905092915050565b7f4e487b7100000000000000000000000000000000000000000000000000000000600052601260045260246000fd5b6000610d96826107bf565b9150610da1836107bf565b925082610db157610db0610d5c565b5b828206905092915050565b610dc5816107bf565b82525050565b6000602082019050610de06000830184610dbc565b92915050565b610def81610d16565b82525050565b6000604082019050610e0a6000830185610de6565b610e176020830184610dbc565b9392505050565b7f4d65737361676556657269666965723a20696e76616c6964207369676e61747560008201527f7265000000000000000000000000000000000000000000000000000000000000602082015250565b6000610e7a6022836109be565b9150610e8582610e1e565b604082019050919050565b60006020820190508181036000830152610ea981610e6d565b9050919050565b7f45434453415570677261646561626c653a20696e76616c6964207369676e617460008201527f7572650000000000000000000000000000000000000000000000000000000000602082015250565b6000610f0c6023836109be565b9150610f1782610eb0565b604082019050919050565b60006020820190508181036000830152610f3b81610eff565b9050919050565b7f1901000000000000000000000000000000000000000000000000000000000000600082015250565b6000610f78600283610c07565b9150610f8382610f42565b600282019050919050565b6000610f9982610f6b565b9150610fa58285610d2a565b602082019150610fb58284610d2a565b6020820191508190509392505050565b7f4e487b7100000000000000000000000000000000000000000000000000000000600052602160045260246000fd5b7f45434453413a20696e76616c6964207369676e61747572650000000000000000600082015250565b600061102a6018836109be565b915061103582610ff4565b602082019050919050565b600060208201905081810360008301526110598161101d565b9050919050565b7f45434453413a20696e76616c6964207369676e6174757265206c656e67746800600082015250565b6000611096601f836109be565b91506110a182611060565b602082019050919050565b600060208201905081810360008301526110c581611089565b9050919050565b7f45434453413a20696e76616c6964207369676e6174757265202773272076616c60008201527f7565000000000000000000000000000000000000000000000000000000000000602082015250565b60006111286022836109be565b9150611133826110cc565b604082019050919050565b600060208201905081810360008301526111578161111b565b9050919050565b600073ffffffffffffffffffffffffffffffffffffffff82169050919050565b60006111898261115e565b9050919050565b6111998161117e565b82525050565b600060a0820190506111b46000830188610de6565b6111c16020830187610de6565b6111ce6040830186610de6565b6111db6060830185610dbc565b6111e86080830184611190565b9695505050505050565b600060ff82169050919050565b611208816111f2565b82525050565b60006080820190506112236000830187610de6565b61123060208301866111ff565b61123d6040830185610de6565b61124a6060830184610de6565b9594505050505056fea2646970667358221220cc2d6d87e18e1a0f042289bd1751545aee95991781ab450490a26f552bd4a74064736f6c63430008110033",
  "linkReferences": {},
  "deployedLinkReferences": {}
}