{"contracts/RandomNumber.sol":{"RandomNumber":{"abi":[{"inputs":[{"internalType":"string","name":"_seed","type":"string"},{"internalType":"string","name":"_name","type":"string"},{"internalType":"string","name":"_version","type":"string"}],"stateMutability":"nonpayable","type":"constructor"},{"inputs":[{"internalType":"string","name":"_tokenFromUniswap","type":"string"},{"internalType":"uint256","name":"_from","type":"uint256"},{"internalType":"uint256","name":"_to","type":"uint256"},{"internalType":"bytes","name":"_signature","type":"bytes"}],"name":"_getRandomNumberInRange","outputs":[{"internalType":"uint256","name":"","type":"uint256"}],"stateMutability":"view","type":"function"}],"evm":{"bytecode":{"linkReferences":{},"object":"6101406040523480156200001257600080fd5b5060405162001b4338038062001b438339818101604052810190620000389190620002d6565b818160008280519060200120905060008280519060200120905060007f8b73c3c69bb8fe3d512ecc4cf759cc79239f7b179b0ffacaa9a75d522b39400f90508260e081815250508161010081815250504660a08181525050620000a38184846200010760201b60201c565b608081815250503073ffffffffffffffffffffffffffffffffffffffff1660c08173ffffffffffffffffffffffffffffffffffffffff168152505080610120818152505050505050508260009081620000fd9190620005da565b505050506200078f565b600083838346306040516020016200012495949392919062000732565b6040516020818303038152906040528051906020012090509392505050565b6000604051905090565b600080fd5b600080fd5b600080fd5b600080fd5b6000601f19601f8301169050919050565b7f4e487b7100000000000000000000000000000000000000000000000000000000600052604160045260246000fd5b620001ac8262000161565b810181811067ffffffffffffffff82111715620001ce57620001cd62000172565b5b80604052505050565b6000620001e362000143565b9050620001f18282620001a1565b919050565b600067ffffffffffffffff82111562000214576200021362000172565b5b6200021f8262000161565b9050602081019050919050565b60005b838110156200024c5780820151818401526020810190506200022f565b60008484015250505050565b60006200026f6200026984620001f6565b620001d7565b9050828152602081018484840111156200028e576200028d6200015c565b5b6200029b8482856200022c565b509392505050565b600082601f830112620002bb57620002ba62000157565b5b8151620002cd84826020860162000258565b91505092915050565b600080600060608486031215620002f257620002f16200014d565b5b600084015167ffffffffffffffff81111562000313576200031262000152565b5b6200032186828701620002a3565b935050602084015167ffffffffffffffff81111562000345576200034462000152565b5b6200035386828701620002a3565b925050604084015167ffffffffffffffff81111562000377576200037662000152565b5b6200038586828701620002a3565b9150509250925092565b600081519050919050565b7f4e487b7100000000000000000000000000000000000000000000000000000000600052602260045260246000fd5b60006002820490506001821680620003e257607f821691505b602082108103620003f857620003f76200039a565b5b50919050565b60008190508160005260206000209050919050565b60006020601f8301049050919050565b600082821b905092915050565b600060088302620004627fffffffffffffffffffffffffffffffffffffffffffffffffffffffffffffffff8262000423565b6200046e868362000423565b95508019841693508086168417925050509392505050565b6000819050919050565b6000819050919050565b6000620004bb620004b5620004af8462000486565b62000490565b62000486565b9050919050565b6000819050919050565b620004d7836200049a565b620004ef620004e682620004c2565b84845462000430565b825550505050565b600090565b62000506620004f7565b62000513818484620004cc565b505050565b5b818110156200053b576200052f600082620004fc565b60018101905062000519565b5050565b601f8211156200058a576200055481620003fe565b6200055f8462000413565b810160208510156200056f578190505b620005876200057e8562000413565b83018262000518565b50505b505050565b600082821c905092915050565b6000620005af600019846008026200058f565b1980831691505092915050565b6000620005ca83836200059c565b9150826002028217905092915050565b620005e5826200038f565b67ffffffffffffffff81111562000601576200060062000172565b5b6200060d8254620003c9565b6200061a8282856200053f565b600060209050601f8311600181146200065257600084156200063d578287015190505b620006498582620005bc565b865550620006b9565b601f1984166200066286620003fe565b60005b828110156200068c5784890151825560018201915060208501945060208101905062000665565b86831015620006ac5784890151620006a8601f8916826200059c565b8355505b6001600288020188555050505b505050505050565b6000819050919050565b620006d681620006c1565b82525050565b620006e78162000486565b82525050565b600073ffffffffffffffffffffffffffffffffffffffff82169050919050565b60006200071a82620006ed565b9050919050565b6200072c816200070d565b82525050565b600060a082019050620007496000830188620006cb565b620007586020830187620006cb565b620007676040830186620006cb565b620007766060830185620006dc565b62000785608083018462000721565b9695505050505050565b60805160a05160c05160e0516101005161012051611364620007df60003960006103f501526000610437015260006104160152600061034b015260006103a1015260006103ca01526113646000f3fe608060405234801561001057600080fd5b506004361061002b5760003560e01c8063da47758d14610030575b600080fd5b61004a60048036038101906100459190610998565b610060565b6040516100579190610a46565b60405180910390f35b60008383116100a4576040517f08c379a000000000000000000000000000000000000000000000000000000000815260040161009b90610abe565b60405180910390fd5b3373ffffffffffffffffffffffffffffffffffffffff166100c586846101b3565b73ffffffffffffffffffffffffffffffffffffffff161461011b576040517f08c379a000000000000000000000000000000000000000000000000000000000815260040161011290610b2a565b60405180910390fd5b60006001858561012b9190610b79565b6101359190610bad565b4344423360008b60405160200161015196959493929190610de5565b604051602081830303815290604052805190602001206040516020016101779190610e78565b6040516020818303038152906040528051906020012060001c61019a9190610ec2565b905084816101a89190610bad565b915050949350505050565b60008061020e7f5fc8a0c859bbccf687ea8999fb140a14411775f4898809650c92c138532c8b3485805190602001206040516020016101f3929190610f02565b60405160208183030381529060405280519060200120610306565b9050600061021c8285610320565b90503373ffffffffffffffffffffffffffffffffffffffff168173ffffffffffffffffffffffffffffffffffffffff161461028c576040517f08c379a000000000000000000000000000000000000000000000000000000000815260040161028390610f9d565b60405180910390fd5b600073ffffffffffffffffffffffffffffffffffffffff168173ffffffffffffffffffffffffffffffffffffffff16036102fb576040517f08c379a00000000000000000000000000000000000000000000000000000000081526004016102f29061102f565b60405180910390fd5b809250505092915050565b6000610319610313610347565b83610461565b9050919050565b600080600061032f8585610494565b9150915061033c816104e5565b819250505092915050565b60007f000000000000000000000000000000000000000000000000000000000000000073ffffffffffffffffffffffffffffffffffffffff163073ffffffffffffffffffffffffffffffffffffffff161480156103c357507f000000000000000000000000000000000000000000000000000000000000000046145b156103f0577f0000000000000000000000000000000000000000000000000000000000000000905061045e565b61045b7f00000000000000000000000000000000000000000000000000000000000000007f00000000000000000000000000000000000000000000000000000000000000007f000000000000000000000000000000000000000000000000000000000000000061064b565b90505b90565b6000828260405160200161047692919061109b565b60405160208183030381529060405280519060200120905092915050565b60008060418351036104d55760008060006020860151925060408601519150606086015160001a90506104c987828585610685565b945094505050506104de565b60006002915091505b9250929050565b600060048111156104f9576104f86110d2565b5b81600481111561050c5761050b6110d2565b5b03156106485760016004811115610526576105256110d2565b5b816004811115610539576105386110d2565b5b03610579576040517f08c379a00000000000000000000000000000000000000000000000000000000081526004016105709061114d565b60405180910390fd5b6002600481111561058d5761058c6110d2565b5b8160048111156105a05761059f6110d2565b5b036105e0576040517f08c379a00000000000000000000000000000000000000000000000000000000081526004016105d7906111b9565b60405180910390fd5b600360048111156105f4576105f36110d2565b5b816004811115610607576106066110d2565b5b03610647576040517f08c379a000000000000000000000000000000000000000000000000000000000815260040161063e9061124b565b60405180910390fd5b5b50565b6000838383463060405160200161066695949392919061127a565b6040516020818303038152906040528051906020012090509392505050565b6000807f7fffffffffffffffffffffffffffffff5d576e7357a4501ddfe92f46681b20a08360001c11156106c057600060039150915061075e565b6000600187878787604051600081526020016040526040516106e594939291906112e9565b6020604051602081039080840390855afa158015610707573d6000803e3d6000fd5b505050602060405103519050600073ffffffffffffffffffffffffffffffffffffffff168173ffffffffffffffffffffffffffffffffffffffff16036107555760006001925092505061075e565b80600092509250505b94509492505050565b6000604051905090565b600080fd5b600080fd5b600080fd5b600080fd5b6000601f19601f8301169050919050565b7f4e487b7100000000000000000000000000000000000000000000000000000000600052604160045260246000fd5b6107ce82610785565b810181811067ffffffffffffffff821117156107ed576107ec610796565b5b80604052505050565b6000610800610767565b905061080c82826107c5565b919050565b600067ffffffffffffffff82111561082c5761082b610796565b5b61083582610785565b9050602081019050919050565b82818337600083830152505050565b600061086461085f84610811565b6107f6565b9050828152602081018484840111156108805761087f610780565b5b61088b848285610842565b509392505050565b600082601f8301126108a8576108a761077b565b5b81356108b8848260208601610851565b91505092915050565b6000819050919050565b6108d4816108c1565b81146108df57600080fd5b50565b6000813590506108f1816108cb565b92915050565b600067ffffffffffffffff82111561091257610911610796565b5b61091b82610785565b9050602081019050919050565b600061093b610936846108f7565b6107f6565b90508281526020810184848401111561095757610956610780565b5b610962848285610842565b509392505050565b600082601f83011261097f5761097e61077b565b5b813561098f848260208601610928565b91505092915050565b600080600080608085870312156109b2576109b1610771565b5b600085013567ffffffffffffffff8111156109d0576109cf610776565b5b6109dc87828801610893565b94505060206109ed878288016108e2565b93505060406109fe878288016108e2565b925050606085013567ffffffffffffffff811115610a1f57610a1e610776565b5b610a2b8782880161096a565b91505092959194509250565b610a40816108c1565b82525050565b6000602082019050610a5b6000830184610a37565b92915050565b600082825260208201905092915050565b7f52616e6765206973206e6f742076616c69640000000000000000000000000000600082015250565b6000610aa8601283610a61565b9150610ab382610a72565b602082019050919050565b60006020820190508181036000830152610ad781610a9b565b9050919050565b7f4e6f7420696e76616c6964000000000000000000000000000000000000000000600082015250565b6000610b14600b83610a61565b9150610b1f82610ade565b602082019050919050565b60006020820190508181036000830152610b4381610b07565b9050919050565b7f4e487b7100000000000000000000000000000000000000000000000000000000600052601160045260246000fd5b6000610b84826108c1565b9150610b8f836108c1565b9250828203905081811115610ba757610ba6610b4a565b5b92915050565b6000610bb8826108c1565b9150610bc3836108c1565b9250828201905080821115610bdb57610bda610b4a565b5b92915050565b6000819050919050565b610bfc610bf7826108c1565b610be1565b82525050565b600073ffffffffffffffffffffffffffffffffffffffff82169050919050565b6000610c2d82610c02565b9050919050565b60008160601b9050919050565b6000610c4c82610c34565b9050919050565b6000610c5e82610c41565b9050919050565b610c76610c7182610c22565b610c53565b82525050565b7f4e487b7100000000000000000000000000000000000000000000000000000000600052602260045260246000fd5b60006002820490506001821680610cc357607f821691505b602082108103610cd657610cd5610c7c565b5b50919050565b600081905092915050565b60008190508160005260206000209050919050565b60008154610d0981610cab565b610d138186610cdc565b94506001821660008114610d2e5760018114610d4357610d76565b60ff1983168652811515820286019350610d76565b610d4c85610ce7565b60005b83811015610d6e57815481890152600182019150602081019050610d4f565b838801955050505b50505092915050565b600081519050919050565b60005b83811015610da8578082015181840152602081019050610d8d565b60008484015250505050565b6000610dbf82610d7f565b610dc98185610cdc565b9350610dd9818560208601610d8a565b80840191505092915050565b6000610df18289610beb565b602082019150610e018288610beb565b602082019150610e118287610beb565b602082019150610e218286610c65565b601482019150610e318285610cfc565b9150610e3d8284610db4565b9150819050979650505050505050565b6000819050919050565b6000819050919050565b610e72610e6d82610e4d565b610e57565b82525050565b6000610e848284610e61565b60208201915081905092915050565b7f4e487b7100000000000000000000000000000000000000000000000000000000600052601260045260246000fd5b6000610ecd826108c1565b9150610ed8836108c1565b925082610ee857610ee7610e93565b5b828206905092915050565b610efc81610e4d565b82525050565b6000604082019050610f176000830185610ef3565b610f246020830184610ef3565b9392505050565b7f4d65737361676556657269666965723a20696e76616c6964207369676e61747560008201527f7265000000000000000000000000000000000000000000000000000000000000602082015250565b6000610f87602283610a61565b9150610f9282610f2b565b604082019050919050565b60006020820190508181036000830152610fb681610f7a565b9050919050565b7f45434453415570677261646561626c653a20696e76616c6964207369676e617460008201527f7572650000000000000000000000000000000000000000000000000000000000602082015250565b6000611019602383610a61565b915061102482610fbd565b604082019050919050565b600060208201905081810360008301526110488161100c565b9050919050565b7f1901000000000000000000000000000000000000000000000000000000000000600082015250565b6000611085600283610cdc565b91506110908261104f565b600282019050919050565b60006110a682611078565b91506110b28285610e61565b6020820191506110c28284610e61565b6020820191508190509392505050565b7f4e487b7100000000000000000000000000000000000000000000000000000000600052602160045260246000fd5b7f45434453413a20696e76616c6964207369676e61747572650000000000000000600082015250565b6000611137601883610a61565b915061114282611101565b602082019050919050565b600060208201905081810360008301526111668161112a565b9050919050565b7f45434453413a20696e76616c6964207369676e6174757265206c656e67746800600082015250565b60006111a3601f83610a61565b91506111ae8261116d565b602082019050919050565b600060208201905081810360008301526111d281611196565b9050919050565b7f45434453413a20696e76616c6964207369676e6174757265202773272076616c60008201527f7565000000000000000000000000000000000000000000000000000000000000602082015250565b6000611235602283610a61565b9150611240826111d9565b604082019050919050565b6000602082019050818103600083015261126481611228565b9050919050565b61127481610c22565b82525050565b600060a08201905061128f6000830188610ef3565b61129c6020830187610ef3565b6112a96040830186610ef3565b6112b66060830185610a37565b6112c3608083018461126b565b9695505050505050565b600060ff82169050919050565b6112e3816112cd565b82525050565b60006080820190506112fe6000830187610ef3565b61130b60208301866112da565b6113186040830185610ef3565b6113256060830184610ef3565b9594505050505056fea2646970667358221220e631a12cfce2f960836cab658be3c515916eb0a4163c68c4af616e1031ca360c64736f6c63430008110033","opcodes":"PUSH2 0x140 PUSH1 0x40 MSTORE CALLVALUE DUP1 ISZERO PUSH3 0x12 JUMPI PUSH1 0x0 DUP1 REVERT JUMPDEST POP PUSH1 0x40 MLOAD PUSH3 0x1B43 CODESIZE SUB DUP1 PUSH3 0x1B43 DUP4 CODECOPY DUP2 DUP2 ADD PUSH1 0x40 MSTORE DUP2 ADD SWAP1 PUSH3 0x38 SWAP2 SWAP1 PUSH3 0x2D6 JUMP JUMPDEST DUP2 DUP2 PUSH1 0x0 DUP3 DUP1 MLOAD SWAP1 PUSH1 0x20 ADD KECCAK256 SWAP1 POP PUSH1 0x0 DUP3 DUP1 MLOAD SWAP1 PUSH1 0x20 ADD KECCAK256 SWAP1 POP PUSH1 0x0 PUSH32 0x8B73C3C69BB8FE3D512ECC4CF759CC79239F7B179B0FFACAA9A75D522B39400F SWAP1 POP DUP3 PUSH1 0xE0 DUP2 DUP2 MSTORE POP POP DUP2 PUSH2 0x100 DUP2 DUP2 MSTORE POP POP CHAINID PUSH1 0xA0 DUP2 DUP2 MSTORE POP POP PUSH3 0xA3 DUP2 DUP5 DUP5 PUSH3 0x107 PUSH1 0x20 SHL PUSH1 0x20 SHR JUMP JUMPDEST PUSH1 0x80 DUP2 DUP2 MSTORE POP POP ADDRESS PUSH20 0xFFFFFFFFFFFFFFFFFFFFFFFFFFFFFFFFFFFFFFFF AND PUSH1 0xC0 DUP2 PUSH20 0xFFFFFFFFFFFFFFFFFFFFFFFFFFFFFFFFFFFFFFFF AND DUP2 MSTORE POP POP DUP1 PUSH2 0x120 DUP2 DUP2 MSTORE POP POP POP POP POP POP POP DUP3 PUSH1 0x0 SWAP1 DUP2 PUSH3 0xFD SWAP2 SWAP1 PUSH3 0x5DA JUMP JUMPDEST POP POP POP POP PUSH3 0x78F JUMP JUMPDEST PUSH1 0x0 DUP4 DUP4 DUP4 CHAINID ADDRESS PUSH1 0x40 MLOAD PUSH1 0x20 ADD PUSH3 0x124 SWAP6 SWAP5 SWAP4 SWAP3 SWAP2 SWAP1 PUSH3 0x732 JUMP JUMPDEST PUSH1 0x40 MLOAD PUSH1 0x20 DUP2 DUP4 SUB SUB DUP2 MSTORE SWAP1 PUSH1 0x40 MSTORE DUP1 MLOAD SWAP1 PUSH1 0x20 ADD KECCAK256 SWAP1 POP SWAP4 SWAP3 POP POP POP JUMP JUMPDEST PUSH1 0x0 PUSH1 0x40 MLOAD SWAP1 POP SWAP1 JUMP JUMPDEST PUSH1 0x0 DUP1 REVERT JUMPDEST PUSH1 0x0 DUP1 REVERT JUMPDEST PUSH1 0x0 DUP1 REVERT JUMPDEST PUSH1 0x0 DUP1 REVERT JUMPDEST PUSH1 0x0 PUSH1 0x1F NOT PUSH1 0x1F DUP4 ADD AND SWAP1 POP SWAP2 SWAP1 POP JUMP JUMPDEST PUSH32 0x4E487B7100000000000000000000000000000000000000000000000000000000 PUSH1 0x0 MSTORE PUSH1 0x41 PUSH1 0x4 MSTORE PUSH1 0x24 PUSH1 0x0 REVERT JUMPDEST PUSH3 0x1AC DUP3 PUSH3 0x161 JUMP JUMPDEST DUP2 ADD DUP2 DUP2 LT PUSH8 0xFFFFFFFFFFFFFFFF DUP3 GT OR ISZERO PUSH3 0x1CE JUMPI PUSH3 0x1CD PUSH3 0x172 JUMP JUMPDEST JUMPDEST DUP1 PUSH1 0x40 MSTORE POP POP POP JUMP JUMPDEST PUSH1 0x0 PUSH3 0x1E3 PUSH3 0x143 JUMP JUMPDEST SWAP1 POP PUSH3 0x1F1 DUP3 DUP3 PUSH3 0x1A1 JUMP JUMPDEST SWAP2 SWAP1 POP JUMP JUMPDEST PUSH1 0x0 PUSH8 0xFFFFFFFFFFFFFFFF DUP3 GT ISZERO PUSH3 0x214 JUMPI PUSH3 0x213 PUSH3 0x172 JUMP JUMPDEST JUMPDEST PUSH3 0x21F DUP3 PUSH3 0x161 JUMP JUMPDEST SWAP1 POP PUSH1 0x20 DUP2 ADD SWAP1 POP SWAP2 SWAP1 POP JUMP JUMPDEST PUSH1 0x0 JUMPDEST DUP4 DUP2 LT ISZERO PUSH3 0x24C JUMPI DUP1 DUP3 ADD MLOAD DUP2 DUP5 ADD MSTORE PUSH1 0x20 DUP2 ADD SWAP1 POP PUSH3 0x22F JUMP JUMPDEST PUSH1 0x0 DUP5 DUP5 ADD MSTORE POP POP POP POP JUMP JUMPDEST PUSH1 0x0 PUSH3 0x26F PUSH3 0x269 DUP5 PUSH3 0x1F6 JUMP JUMPDEST PUSH3 0x1D7 JUMP JUMPDEST SWAP1 POP DUP3 DUP2 MSTORE PUSH1 0x20 DUP2 ADD DUP5 DUP5 DUP5 ADD GT ISZERO PUSH3 0x28E JUMPI PUSH3 0x28D PUSH3 0x15C JUMP JUMPDEST JUMPDEST PUSH3 0x29B DUP5 DUP3 DUP6 PUSH3 0x22C JUMP JUMPDEST POP SWAP4 SWAP3 POP POP POP JUMP JUMPDEST PUSH1 0x0 DUP3 PUSH1 0x1F DUP4 ADD SLT PUSH3 0x2BB JUMPI PUSH3 0x2BA PUSH3 0x157 JUMP JUMPDEST JUMPDEST DUP2 MLOAD PUSH3 0x2CD DUP5 DUP3 PUSH1 0x20 DUP7 ADD PUSH3 0x258 JUMP JUMPDEST SWAP2 POP POP SWAP3 SWAP2 POP POP JUMP JUMPDEST PUSH1 0x0 DUP1 PUSH1 0x0 PUSH1 0x60 DUP5 DUP7 SUB SLT ISZERO PUSH3 0x2F2 JUMPI PUSH3 0x2F1 PUSH3 0x14D JUMP JUMPDEST JUMPDEST PUSH1 0x0 DUP5 ADD MLOAD PUSH8 0xFFFFFFFFFFFFFFFF DUP2 GT ISZERO PUSH3 0x313 JUMPI PUSH3 0x312 PUSH3 0x152 JUMP JUMPDEST JUMPDEST PUSH3 0x321 DUP7 DUP3 DUP8 ADD PUSH3 0x2A3 JUMP JUMPDEST SWAP4 POP POP PUSH1 0x20 DUP5 ADD MLOAD PUSH8 0xFFFFFFFFFFFFFFFF DUP2 GT ISZERO PUSH3 0x345 JUMPI PUSH3 0x344 PUSH3 0x152 JUMP JUMPDEST JUMPDEST PUSH3 0x353 DUP7 DUP3 DUP8 ADD PUSH3 0x2A3 JUMP JUMPDEST SWAP3 POP POP PUSH1 0x40 DUP5 ADD MLOAD PUSH8 0xFFFFFFFFFFFFFFFF DUP2 GT ISZERO PUSH3 0x377 JUMPI PUSH3 0x376 PUSH3 0x152 JUMP JUMPDEST JUMPDEST PUSH3 0x385 DUP7 DUP3 DUP8 ADD PUSH3 0x2A3 JUMP JUMPDEST SWAP2 POP POP SWAP3 POP SWAP3 POP SWAP3 JUMP JUMPDEST PUSH1 0x0 DUP2 MLOAD SWAP1 POP SWAP2 SWAP1 POP JUMP JUMPDEST PUSH32 0x4E487B7100000000000000000000000000000000000000000000000000000000 PUSH1 0x0 MSTORE PUSH1 0x22 PUSH1 0x4 MSTORE PUSH1 0x24 PUSH1 0x0 REVERT JUMPDEST PUSH1 0x0 PUSH1 0x2 DUP3 DIV SWAP1 POP PUSH1 0x1 DUP3 AND DUP1 PUSH3 0x3E2 JUMPI PUSH1 0x7F DUP3 AND SWAP2 POP JUMPDEST PUSH1 0x20 DUP3 LT DUP2 SUB PUSH3 0x3F8 JUMPI PUSH3 0x3F7 PUSH3 0x39A JUMP JUMPDEST JUMPDEST POP SWAP2 SWAP1 POP JUMP JUMPDEST PUSH1 0x0 DUP2 SWAP1 POP DUP2 PUSH1 0x0 MSTORE PUSH1 0x20 PUSH1 0x0 KECCAK256 SWAP1 POP SWAP2 SWAP1 POP JUMP JUMPDEST PUSH1 0x0 PUSH1 0x20 PUSH1 0x1F DUP4 ADD DIV SWAP1 POP SWAP2 SWAP1 POP JUMP JUMPDEST PUSH1 0x0 DUP3 DUP3 SHL SWAP1 POP SWAP3 SWAP2 POP POP JUMP JUMPDEST PUSH1 0x0 PUSH1 0x8 DUP4 MUL PUSH3 0x462 PUSH32 0xFFFFFFFFFFFFFFFFFFFFFFFFFFFFFFFFFFFFFFFFFFFFFFFFFFFFFFFFFFFFFFFF DUP3 PUSH3 0x423 JUMP JUMPDEST PUSH3 0x46E DUP7 DUP4 PUSH3 0x423 JUMP JUMPDEST SWAP6 POP DUP1 NOT DUP5 AND SWAP4 POP DUP1 DUP7 AND DUP5 OR SWAP3 POP POP POP SWAP4 SWAP3 POP POP POP JUMP JUMPDEST PUSH1 0x0 DUP2 SWAP1 POP SWAP2 SWAP1 POP JUMP JUMPDEST PUSH1 0x0 DUP2 SWAP1 POP SWAP2 SWAP1 POP JUMP JUMPDEST PUSH1 0x0 PUSH3 0x4BB PUSH3 0x4B5 PUSH3 0x4AF DUP5 PUSH3 0x486 JUMP JUMPDEST PUSH3 0x490 JUMP JUMPDEST PUSH3 0x486 JUMP JUMPDEST SWAP1 POP SWAP2 SWAP1 POP JUMP JUMPDEST PUSH1 0x0 DUP2 SWAP1 POP SWAP2 SWAP1 POP JUMP JUMPDEST PUSH3 0x4D7 DUP4 PUSH3 0x49A JUMP JUMPDEST PUSH3 0x4EF PUSH3 0x4E6 DUP3 PUSH3 0x4C2 JUMP JUMPDEST DUP5 DUP5 SLOAD PUSH3 0x430 JUMP JUMPDEST DUP3 SSTORE POP POP POP POP JUMP JUMPDEST PUSH1 0x0 SWAP1 JUMP JUMPDEST PUSH3 0x506 PUSH3 0x4F7 JUMP JUMPDEST PUSH3 0x513 DUP2 DUP5 DUP5 PUSH3 0x4CC JUMP JUMPDEST POP POP POP JUMP JUMPDEST JUMPDEST DUP2 DUP2 LT ISZERO PUSH3 0x53B JUMPI PUSH3 0x52F PUSH1 0x0 DUP3 PUSH3 0x4FC JUMP JUMPDEST PUSH1 0x1 DUP2 ADD SWAP1 POP PUSH3 0x519 JUMP JUMPDEST POP POP JUMP JUMPDEST PUSH1 0x1F DUP3 GT ISZERO PUSH3 0x58A JUMPI PUSH3 0x554 DUP2 PUSH3 0x3FE JUMP JUMPDEST PUSH3 0x55F DUP5 PUSH3 0x413 JUMP JUMPDEST DUP2 ADD PUSH1 0x20 DUP6 LT ISZERO PUSH3 0x56F JUMPI DUP2 SWAP1 POP JUMPDEST PUSH3 0x587 PUSH3 0x57E DUP6 PUSH3 0x413 JUMP JUMPDEST DUP4 ADD DUP3 PUSH3 0x518 JUMP JUMPDEST POP POP JUMPDEST POP POP POP JUMP JUMPDEST PUSH1 0x0 DUP3 DUP3 SHR SWAP1 POP SWAP3 SWAP2 POP POP JUMP JUMPDEST PUSH1 0x0 PUSH3 0x5AF PUSH1 0x0 NOT DUP5 PUSH1 0x8 MUL PUSH3 0x58F JUMP JUMPDEST NOT DUP1 DUP4 AND SWAP2 POP POP SWAP3 SWAP2 POP POP JUMP JUMPDEST PUSH1 0x0 PUSH3 0x5CA DUP4 DUP4 PUSH3 0x59C JUMP JUMPDEST SWAP2 POP DUP3 PUSH1 0x2 MUL DUP3 OR SWAP1 POP SWAP3 SWAP2 POP POP JUMP JUMPDEST PUSH3 0x5E5 DUP3 PUSH3 0x38F JUMP JUMPDEST PUSH8 0xFFFFFFFFFFFFFFFF DUP2 GT ISZERO PUSH3 0x601 JUMPI PUSH3 0x600 PUSH3 0x172 JUMP JUMPDEST JUMPDEST PUSH3 0x60D DUP3 SLOAD PUSH3 0x3C9 JUMP JUMPDEST PUSH3 0x61A DUP3 DUP3 DUP6 PUSH3 0x53F JUMP JUMPDEST PUSH1 0x0 PUSH1 0x20 SWAP1 POP PUSH1 0x1F DUP4 GT PUSH1 0x1 DUP2 EQ PUSH3 0x652 JUMPI PUSH1 0x0 DUP5 ISZERO PUSH3 0x63D JUMPI DUP3 DUP8 ADD MLOAD SWAP1 POP JUMPDEST PUSH3 0x649 DUP6 DUP3 PUSH3 0x5BC JUMP JUMPDEST DUP7 SSTORE POP PUSH3 0x6B9 JUMP JUMPDEST PUSH1 0x1F NOT DUP5 AND PUSH3 0x662 DUP7 PUSH3 0x3FE JUMP JUMPDEST PUSH1 0x0 JUMPDEST DUP3 DUP2 LT ISZERO PUSH3 0x68C JUMPI DUP5 DUP10 ADD MLOAD DUP3 SSTORE PUSH1 0x1 DUP3 ADD SWAP2 POP PUSH1 0x20 DUP6 ADD SWAP5 POP PUSH1 0x20 DUP2 ADD SWAP1 POP PUSH3 0x665 JUMP JUMPDEST DUP7 DUP4 LT ISZERO PUSH3 0x6AC JUMPI DUP5 DUP10 ADD MLOAD PUSH3 0x6A8 PUSH1 0x1F DUP10 AND DUP3 PUSH3 0x59C JUMP JUMPDEST DUP4 SSTORE POP JUMPDEST PUSH1 0x1 PUSH1 0x2 DUP9 MUL ADD DUP9 SSTORE POP POP POP JUMPDEST POP POP POP POP POP POP JUMP JUMPDEST PUSH1 0x0 DUP2 SWAP1 POP SWAP2 SWAP1 POP JUMP JUMPDEST PUSH3 0x6D6 DUP2 PUSH3 0x6C1 JUMP JUMPDEST DUP3 MSTORE POP POP JUMP JUMPDEST PUSH3 0x6E7 DUP2 PUSH3 0x486 JUMP JUMPDEST DUP3 MSTORE POP POP JUMP JUMPDEST PUSH1 0x0 PUSH20 0xFFFFFFFFFFFFFFFFFFFFFFFFFFFFFFFFFFFFFFFF DUP3 AND SWAP1 POP SWAP2 SWAP1 POP JUMP JUMPDEST PUSH1 0x0 PUSH3 0x71A DUP3 PUSH3 0x6ED JUMP JUMPDEST SWAP1 POP SWAP2 SWAP1 POP JUMP JUMPDEST PUSH3 0x72C DUP2 PUSH3 0x70D JUMP JUMPDEST DUP3 MSTORE POP POP JUMP JUMPDEST PUSH1 0x0 PUSH1 0xA0 DUP3 ADD SWAP1 POP PUSH3 0x749 PUSH1 0x0 DUP4 ADD DUP9 PUSH3 0x6CB JUMP JUMPDEST PUSH3 0x758 PUSH1 0x20 DUP4 ADD DUP8 PUSH3 0x6CB JUMP JUMPDEST PUSH3 0x767 PUSH1 0x40 DUP4 ADD DUP7 PUSH3 0x6CB JUMP JUMPDEST PUSH3 0x776 PUSH1 0x60 DUP4 ADD DUP6 PUSH3 0x6DC JUMP JUMPDEST PUSH3 0x785 PUSH1 0x80 DUP4 ADD DUP5 PUSH3 0x721 JUMP JUMPDEST SWAP7 SWAP6 POP POP POP POP POP POP JUMP JUMPDEST PUSH1 0x80 MLOAD PUSH1 0xA0 MLOAD PUSH1 0xC0 MLOAD PUSH1 0xE0 MLOAD PUSH2 0x100 MLOAD PUSH2 0x120 MLOAD PUSH2 0x1364 PUSH3 0x7DF PUSH1 0x0 CODECOPY PUSH1 0x0 PUSH2 0x3F5 ADD MSTORE PUSH1 0x0 PUSH2 0x437 ADD MSTORE PUSH1 0x0 PUSH2 0x416 ADD MSTORE PUSH1 0x0 PUSH2 0x34B ADD MSTORE PUSH1 0x0 PUSH2 0x3A1 ADD MSTORE PUSH1 0x0 PUSH2 0x3CA ADD MSTORE PUSH2 0x1364 PUSH1 0x0 RETURN INVALID PUSH1 0x80 PUSH1 0x40 MSTORE CALLVALUE DUP1 ISZERO PUSH2 0x10 JUMPI PUSH1 0x0 DUP1 REVERT JUMPDEST POP PUSH1 0x4 CALLDATASIZE LT PUSH2 0x2B JUMPI PUSH1 0x0 CALLDATALOAD PUSH1 0xE0 SHR DUP1 PUSH4 0xDA47758D EQ PUSH2 0x30 JUMPI JUMPDEST PUSH1 0x0 DUP1 REVERT JUMPDEST PUSH2 0x4A PUSH1 0x4 DUP1 CALLDATASIZE SUB DUP2 ADD SWAP1 PUSH2 0x45 SWAP2 SWAP1 PUSH2 0x998 JUMP JUMPDEST PUSH2 0x60 JUMP JUMPDEST PUSH1 0x40 MLOAD PUSH2 0x57 SWAP2 SWAP1 PUSH2 0xA46 JUMP JUMPDEST PUSH1 0x40 MLOAD DUP1 SWAP2 SUB SWAP1 RETURN JUMPDEST PUSH1 0x0 DUP4 DUP4 GT PUSH2 0xA4 JUMPI PUSH1 0x40 MLOAD PUSH32 0x8C379A000000000000000000000000000000000000000000000000000000000 DUP2 MSTORE PUSH1 0x4 ADD PUSH2 0x9B SWAP1 PUSH2 0xABE JUMP JUMPDEST PUSH1 0x40 MLOAD DUP1 SWAP2 SUB SWAP1 REVERT JUMPDEST CALLER PUSH20 0xFFFFFFFFFFFFFFFFFFFFFFFFFFFFFFFFFFFFFFFF AND PUSH2 0xC5 DUP7 DUP5 PUSH2 0x1B3 JUMP JUMPDEST PUSH20 0xFFFFFFFFFFFFFFFFFFFFFFFFFFFFFFFFFFFFFFFF AND EQ PUSH2 0x11B JUMPI PUSH1 0x40 MLOAD PUSH32 0x8C379A000000000000000000000000000000000000000000000000000000000 DUP2 MSTORE PUSH1 0x4 ADD PUSH2 0x112 SWAP1 PUSH2 0xB2A JUMP JUMPDEST PUSH1 0x40 MLOAD DUP1 SWAP2 SUB SWAP1 REVERT JUMPDEST PUSH1 0x0 PUSH1 0x1 DUP6 DUP6 PUSH2 0x12B SWAP2 SWAP1 PUSH2 0xB79 JUMP JUMPDEST PUSH2 0x135 SWAP2 SWAP1 PUSH2 0xBAD JUMP JUMPDEST NUMBER DIFFICULTY TIMESTAMP CALLER PUSH1 0x0 DUP12 PUSH1 0x40 MLOAD PUSH1 0x20 ADD PUSH2 0x151 SWAP7 SWAP6 SWAP5 SWAP4 SWAP3 SWAP2 SWAP1 PUSH2 0xDE5 JUMP JUMPDEST PUSH1 0x40 MLOAD PUSH1 0x20 DUP2 DUP4 SUB SUB DUP2 MSTORE SWAP1 PUSH1 0x40 MSTORE DUP1 MLOAD SWAP1 PUSH1 0x20 ADD KECCAK256 PUSH1 0x40 MLOAD PUSH1 0x20 ADD PUSH2 0x177 SWAP2 SWAP1 PUSH2 0xE78 JUMP JUMPDEST PUSH1 0x40 MLOAD PUSH1 0x20 DUP2 DUP4 SUB SUB DUP2 MSTORE SWAP1 PUSH1 0x40 MSTORE DUP1 MLOAD SWAP1 PUSH1 0x20 ADD KECCAK256 PUSH1 0x0 SHR PUSH2 0x19A SWAP2 SWAP1 PUSH2 0xEC2 JUMP JUMPDEST SWAP1 POP DUP5 DUP2 PUSH2 0x1A8 SWAP2 SWAP1 PUSH2 0xBAD JUMP JUMPDEST SWAP2 POP POP SWAP5 SWAP4 POP POP POP POP JUMP JUMPDEST PUSH1 0x0 DUP1 PUSH2 0x20E PUSH32 0x5FC8A0C859BBCCF687EA8999FB140A14411775F4898809650C92C138532C8B34 DUP6 DUP1 MLOAD SWAP1 PUSH1 0x20 ADD KECCAK256 PUSH1 0x40 MLOAD PUSH1 0x20 ADD PUSH2 0x1F3 SWAP3 SWAP2 SWAP1 PUSH2 0xF02 JUMP JUMPDEST PUSH1 0x40 MLOAD PUSH1 0x20 DUP2 DUP4 SUB SUB DUP2 MSTORE SWAP1 PUSH1 0x40 MSTORE DUP1 MLOAD SWAP1 PUSH1 0x20 ADD KECCAK256 PUSH2 0x306 JUMP JUMPDEST SWAP1 POP PUSH1 0x0 PUSH2 0x21C DUP3 DUP6 PUSH2 0x320 JUMP JUMPDEST SWAP1 POP CALLER PUSH20 0xFFFFFFFFFFFFFFFFFFFFFFFFFFFFFFFFFFFFFFFF AND DUP2 PUSH20 0xFFFFFFFFFFFFFFFFFFFFFFFFFFFFFFFFFFFFFFFF AND EQ PUSH2 0x28C JUMPI PUSH1 0x40 MLOAD PUSH32 0x8C379A000000000000000000000000000000000000000000000000000000000 DUP2 MSTORE PUSH1 0x4 ADD PUSH2 0x283 SWAP1 PUSH2 0xF9D JUMP JUMPDEST PUSH1 0x40 MLOAD DUP1 SWAP2 SUB SWAP1 REVERT JUMPDEST PUSH1 0x0 PUSH20 0xFFFFFFFFFFFFFFFFFFFFFFFFFFFFFFFFFFFFFFFF AND DUP2 PUSH20 0xFFFFFFFFFFFFFFFFFFFFFFFFFFFFFFFFFFFFFFFF AND SUB PUSH2 0x2FB JUMPI PUSH1 0x40 MLOAD PUSH32 0x8C379A000000000000000000000000000000000000000000000000000000000 DUP2 MSTORE PUSH1 0x4 ADD PUSH2 0x2F2 SWAP1 PUSH2 0x102F JUMP JUMPDEST PUSH1 0x40 MLOAD DUP1 SWAP2 SUB SWAP1 REVERT JUMPDEST DUP1 SWAP3 POP POP POP SWAP3 SWAP2 POP POP JUMP JUMPDEST PUSH1 0x0 PUSH2 0x319 PUSH2 0x313 PUSH2 0x347 JUMP JUMPDEST DUP4 PUSH2 0x461 JUMP JUMPDEST SWAP1 POP SWAP2 SWAP1 POP JUMP JUMPDEST PUSH1 0x0 DUP1 PUSH1 0x0 PUSH2 0x32F DUP6 DUP6 PUSH2 0x494 JUMP JUMPDEST SWAP2 POP SWAP2 POP PUSH2 0x33C DUP2 PUSH2 0x4E5 JUMP JUMPDEST DUP2 SWAP3 POP POP POP SWAP3 SWAP2 POP POP JUMP JUMPDEST PUSH1 0x0 PUSH32 0x0 PUSH20 0xFFFFFFFFFFFFFFFFFFFFFFFFFFFFFFFFFFFFFFFF AND ADDRESS PUSH20 0xFFFFFFFFFFFFFFFFFFFFFFFFFFFFFFFFFFFFFFFF AND EQ DUP1 ISZERO PUSH2 0x3C3 JUMPI POP PUSH32 0x0 CHAINID EQ JUMPDEST ISZERO PUSH2 0x3F0 JUMPI PUSH32 0x0 SWAP1 POP PUSH2 0x45E JUMP JUMPDEST PUSH2 0x45B PUSH32 0x0 PUSH32 0x0 PUSH32 0x0 PUSH2 0x64B JUMP JUMPDEST SWAP1 POP JUMPDEST SWAP1 JUMP JUMPDEST PUSH1 0x0 DUP3 DUP3 PUSH1 0x40 MLOAD PUSH1 0x20 ADD PUSH2 0x476 SWAP3 SWAP2 SWAP1 PUSH2 0x109B JUMP JUMPDEST PUSH1 0x40 MLOAD PUSH1 0x20 DUP2 DUP4 SUB SUB DUP2 MSTORE SWAP1 PUSH1 0x40 MSTORE DUP1 MLOAD SWAP1 PUSH1 0x20 ADD KECCAK256 SWAP1 POP SWAP3 SWAP2 POP POP JUMP JUMPDEST PUSH1 0x0 DUP1 PUSH1 0x41 DUP4 MLOAD SUB PUSH2 0x4D5 JUMPI PUSH1 0x0 DUP1 PUSH1 0x0 PUSH1 0x20 DUP7 ADD MLOAD SWAP3 POP PUSH1 0x40 DUP7 ADD MLOAD SWAP2 POP PUSH1 0x60 DUP7 ADD MLOAD PUSH1 0x0 BYTE SWAP1 POP PUSH2 0x4C9 DUP8 DUP3 DUP6 DUP6 PUSH2 0x685 JUMP JUMPDEST SWAP5 POP SWAP5 POP POP POP POP PUSH2 0x4DE JUMP JUMPDEST PUSH1 0x0 PUSH1 0x2 SWAP2 POP SWAP2 POP JUMPDEST SWAP3 POP SWAP3 SWAP1 POP JUMP JUMPDEST PUSH1 0x0 PUSH1 0x4 DUP2 GT ISZERO PUSH2 0x4F9 JUMPI PUSH2 0x4F8 PUSH2 0x10D2 JUMP JUMPDEST JUMPDEST DUP2 PUSH1 0x4 DUP2 GT ISZERO PUSH2 0x50C JUMPI PUSH2 0x50B PUSH2 0x10D2 JUMP JUMPDEST JUMPDEST SUB ISZERO PUSH2 0x648 JUMPI PUSH1 0x1 PUSH1 0x4 DUP2 GT ISZERO PUSH2 0x526 JUMPI PUSH2 0x525 PUSH2 0x10D2 JUMP JUMPDEST JUMPDEST DUP2 PUSH1 0x4 DUP2 GT ISZERO PUSH2 0x539 JUMPI PUSH2 0x538 PUSH2 0x10D2 JUMP JUMPDEST JUMPDEST SUB PUSH2 0x579 JUMPI PUSH1 0x40 MLOAD PUSH32 0x8C379A000000000000000000000000000000000000000000000000000000000 DUP2 MSTORE PUSH1 0x4 ADD PUSH2 0x570 SWAP1 PUSH2 0x114D JUMP JUMPDEST PUSH1 0x40 MLOAD DUP1 SWAP2 SUB SWAP1 REVERT JUMPDEST PUSH1 0x2 PUSH1 0x4 DUP2 GT ISZERO PUSH2 0x58D JUMPI PUSH2 0x58C PUSH2 0x10D2 JUMP JUMPDEST JUMPDEST DUP2 PUSH1 0x4 DUP2 GT ISZERO PUSH2 0x5A0 JUMPI PUSH2 0x59F PUSH2 0x10D2 JUMP JUMPDEST JUMPDEST SUB PUSH2 0x5E0 JUMPI PUSH1 0x40 MLOAD PUSH32 0x8C379A000000000000000000000000000000000000000000000000000000000 DUP2 MSTORE PUSH1 0x4 ADD PUSH2 0x5D7 SWAP1 PUSH2 0x11B9 JUMP JUMPDEST PUSH1 0x40 MLOAD DUP1 SWAP2 SUB SWAP1 REVERT JUMPDEST PUSH1 0x3 PUSH1 0x4 DUP2 GT ISZERO PUSH2 0x5F4 JUMPI PUSH2 0x5F3 PUSH2 0x10D2 JUMP JUMPDEST JUMPDEST DUP2 PUSH1 0x4 DUP2 GT ISZERO PUSH2 0x607 JUMPI PUSH2 0x606 PUSH2 0x10D2 JUMP JUMPDEST JUMPDEST SUB PUSH2 0x647 JUMPI PUSH1 0x40 MLOAD PUSH32 0x8C379A000000000000000000000000000000000000000000000000000000000 DUP2 MSTORE PUSH1 0x4 ADD PUSH2 0x63E SWAP1 PUSH2 0x124B JUMP JUMPDEST PUSH1 0x40 MLOAD DUP1 SWAP2 SUB SWAP1 REVERT JUMPDEST JUMPDEST POP JUMP JUMPDEST PUSH1 0x0 DUP4 DUP4 DUP4 CHAINID ADDRESS PUSH1 0x40 MLOAD PUSH1 0x20 ADD PUSH2 0x666 SWAP6 SWAP5 SWAP4 SWAP3 SWAP2 SWAP1 PUSH2 0x127A JUMP JUMPDEST PUSH1 0x40 MLOAD PUSH1 0x20 DUP2 DUP4 SUB SUB DUP2 MSTORE SWAP1 PUSH1 0x40 MSTORE DUP1 MLOAD SWAP1 PUSH1 0x20 ADD KECCAK256 SWAP1 POP SWAP4 SWAP3 POP POP POP JUMP JUMPDEST PUSH1 0x0 DUP1 PUSH32 0x7FFFFFFFFFFFFFFFFFFFFFFFFFFFFFFF5D576E7357A4501DDFE92F46681B20A0 DUP4 PUSH1 0x0 SHR GT ISZERO PUSH2 0x6C0 JUMPI PUSH1 0x0 PUSH1 0x3 SWAP2 POP SWAP2 POP PUSH2 0x75E JUMP JUMPDEST PUSH1 0x0 PUSH1 0x1 DUP8 DUP8 DUP8 DUP8 PUSH1 0x40 MLOAD PUSH1 0x0 DUP2 MSTORE PUSH1 0x20 ADD PUSH1 0x40 MSTORE PUSH1 0x40 MLOAD PUSH2 0x6E5 SWAP5 SWAP4 SWAP3 SWAP2 SWAP1 PUSH2 0x12E9 JUMP JUMPDEST PUSH1 0x20 PUSH1 0x40 MLOAD PUSH1 0x20 DUP2 SUB SWAP1 DUP1 DUP5 SUB SWAP1 DUP6 GAS STATICCALL ISZERO DUP1 ISZERO PUSH2 0x707 JUMPI RETURNDATASIZE PUSH1 0x0 DUP1 RETURNDATACOPY RETURNDATASIZE PUSH1 0x0 REVERT JUMPDEST POP POP POP PUSH1 0x20 PUSH1 0x40 MLOAD SUB MLOAD SWAP1 POP PUSH1 0x0 PUSH20 0xFFFFFFFFFFFFFFFFFFFFFFFFFFFFFFFFFFFFFFFF AND DUP2 PUSH20 0xFFFFFFFFFFFFFFFFFFFFFFFFFFFFFFFFFFFFFFFF AND SUB PUSH2 0x755 JUMPI PUSH1 0x0 PUSH1 0x1 SWAP3 POP SWAP3 POP POP PUSH2 0x75E JUMP JUMPDEST DUP1 PUSH1 0x0 SWAP3 POP SWAP3 POP POP JUMPDEST SWAP5 POP SWAP5 SWAP3 POP POP POP JUMP JUMPDEST PUSH1 0x0 PUSH1 0x40 MLOAD SWAP1 POP SWAP1 JUMP JUMPDEST PUSH1 0x0 DUP1 REVERT JUMPDEST PUSH1 0x0 DUP1 REVERT JUMPDEST PUSH1 0x0 DUP1 REVERT JUMPDEST PUSH1 0x0 DUP1 REVERT JUMPDEST PUSH1 0x0 PUSH1 0x1F NOT PUSH1 0x1F DUP4 ADD AND SWAP1 POP SWAP2 SWAP1 POP JUMP JUMPDEST PUSH32 0x4E487B7100000000000000000000000000000000000000000000000000000000 PUSH1 0x0 MSTORE PUSH1 0x41 PUSH1 0x4 MSTORE PUSH1 0x24 PUSH1 0x0 REVERT JUMPDEST PUSH2 0x7CE DUP3 PUSH2 0x785 JUMP JUMPDEST DUP2 ADD DUP2 DUP2 LT PUSH8 0xFFFFFFFFFFFFFFFF DUP3 GT OR ISZERO PUSH2 0x7ED JUMPI PUSH2 0x7EC PUSH2 0x796 JUMP JUMPDEST JUMPDEST DUP1 PUSH1 0x40 MSTORE POP POP POP JUMP JUMPDEST PUSH1 0x0 PUSH2 0x800 PUSH2 0x767 JUMP JUMPDEST SWAP1 POP PUSH2 0x80C DUP3 DUP3 PUSH2 0x7C5 JUMP JUMPDEST SWAP2 SWAP1 POP JUMP JUMPDEST PUSH1 0x0 PUSH8 0xFFFFFFFFFFFFFFFF DUP3 GT ISZERO PUSH2 0x82C JUMPI PUSH2 0x82B PUSH2 0x796 JUMP JUMPDEST JUMPDEST PUSH2 0x835 DUP3 PUSH2 0x785 JUMP JUMPDEST SWAP1 POP PUSH1 0x20 DUP2 ADD SWAP1 POP SWAP2 SWAP1 POP JUMP JUMPDEST DUP3 DUP2 DUP4 CALLDATACOPY PUSH1 0x0 DUP4 DUP4 ADD MSTORE POP POP POP JUMP JUMPDEST PUSH1 0x0 PUSH2 0x864 PUSH2 0x85F DUP5 PUSH2 0x811 JUMP JUMPDEST PUSH2 0x7F6 JUMP JUMPDEST SWAP1 POP DUP3 DUP2 MSTORE PUSH1 0x20 DUP2 ADD DUP5 DUP5 DUP5 ADD GT ISZERO PUSH2 0x880 JUMPI PUSH2 0x87F PUSH2 0x780 JUMP JUMPDEST JUMPDEST PUSH2 0x88B DUP5 DUP3 DUP6 PUSH2 0x842 JUMP JUMPDEST POP SWAP4 SWAP3 POP POP POP JUMP JUMPDEST PUSH1 0x0 DUP3 PUSH1 0x1F DUP4 ADD SLT PUSH2 0x8A8 JUMPI PUSH2 0x8A7 PUSH2 0x77B JUMP JUMPDEST JUMPDEST DUP2 CALLDATALOAD PUSH2 0x8B8 DUP5 DUP3 PUSH1 0x20 DUP7 ADD PUSH2 0x851 JUMP JUMPDEST SWAP2 POP POP SWAP3 SWAP2 POP POP JUMP JUMPDEST PUSH1 0x0 DUP2 SWAP1 POP SWAP2 SWAP1 POP JUMP JUMPDEST PUSH2 0x8D4 DUP2 PUSH2 0x8C1 JUMP JUMPDEST DUP2 EQ PUSH2 0x8DF JUMPI PUSH1 0x0 DUP1 REVERT JUMPDEST POP JUMP JUMPDEST PUSH1 0x0 DUP2 CALLDATALOAD SWAP1 POP PUSH2 0x8F1 DUP2 PUSH2 0x8CB JUMP JUMPDEST SWAP3 SWAP2 POP POP JUMP JUMPDEST PUSH1 0x0 PUSH8 0xFFFFFFFFFFFFFFFF DUP3 GT ISZERO PUSH2 0x912 JUMPI PUSH2 0x911 PUSH2 0x796 JUMP JUMPDEST JUMPDEST PUSH2 0x91B DUP3 PUSH2 0x785 JUMP JUMPDEST SWAP1 POP PUSH1 0x20 DUP2 ADD SWAP1 POP SWAP2 SWAP1 POP JUMP JUMPDEST PUSH1 0x0 PUSH2 0x93B PUSH2 0x936 DUP5 PUSH2 0x8F7 JUMP JUMPDEST PUSH2 0x7F6 JUMP JUMPDEST SWAP1 POP DUP3 DUP2 MSTORE PUSH1 0x20 DUP2 ADD DUP5 DUP5 DUP5 ADD GT ISZERO PUSH2 0x957 JUMPI PUSH2 0x956 PUSH2 0x780 JUMP JUMPDEST JUMPDEST PUSH2 0x962 DUP5 DUP3 DUP6 PUSH2 0x842 JUMP JUMPDEST POP SWAP4 SWAP3 POP POP POP JUMP JUMPDEST PUSH1 0x0 DUP3 PUSH1 0x1F DUP4 ADD SLT PUSH2 0x97F JUMPI PUSH2 0x97E PUSH2 0x77B JUMP JUMPDEST JUMPDEST DUP2 CALLDATALOAD PUSH2 0x98F DUP5 DUP3 PUSH1 0x20 DUP7 ADD PUSH2 0x928 JUMP JUMPDEST SWAP2 POP POP SWAP3 SWAP2 POP POP JUMP JUMPDEST PUSH1 0x0 DUP1 PUSH1 0x0 DUP1 PUSH1 0x80 DUP6 DUP8 SUB SLT ISZERO PUSH2 0x9B2 JUMPI PUSH2 0x9B1 PUSH2 0x771 JUMP JUMPDEST JUMPDEST PUSH1 0x0 DUP6 ADD CALLDATALOAD PUSH8 0xFFFFFFFFFFFFFFFF DUP2 GT ISZERO PUSH2 0x9D0 JUMPI PUSH2 0x9CF PUSH2 0x776 JUMP JUMPDEST JUMPDEST PUSH2 0x9DC DUP8 DUP3 DUP9 ADD PUSH2 0x893 JUMP JUMPDEST SWAP5 POP POP PUSH1 0x20 PUSH2 0x9ED DUP8 DUP3 DUP9 ADD PUSH2 0x8E2 JUMP JUMPDEST SWAP4 POP POP PUSH1 0x40 PUSH2 0x9FE DUP8 DUP3 DUP9 ADD PUSH2 0x8E2 JUMP JUMPDEST SWAP3 POP POP PUSH1 0x60 DUP6 ADD CALLDATALOAD PUSH8 0xFFFFFFFFFFFFFFFF DUP2 GT ISZERO PUSH2 0xA1F JUMPI PUSH2 0xA1E PUSH2 0x776 JUMP JUMPDEST JUMPDEST PUSH2 0xA2B DUP8 DUP3 DUP9 ADD PUSH2 0x96A JUMP JUMPDEST SWAP2 POP POP SWAP3 SWAP6 SWAP2 SWAP5 POP SWAP3 POP JUMP JUMPDEST PUSH2 0xA40 DUP2 PUSH2 0x8C1 JUMP JUMPDEST DUP3 MSTORE POP POP JUMP JUMPDEST PUSH1 0x0 PUSH1 0x20 DUP3 ADD SWAP1 POP PUSH2 0xA5B PUSH1 0x0 DUP4 ADD DUP5 PUSH2 0xA37 JUMP JUMPDEST SWAP3 SWAP2 POP POP JUMP JUMPDEST PUSH1 0x0 DUP3 DUP3 MSTORE PUSH1 0x20 DUP3 ADD SWAP1 POP SWAP3 SWAP2 POP POP JUMP JUMPDEST PUSH32 0x52616E6765206973206E6F742076616C69640000000000000000000000000000 PUSH1 0x0 DUP3 ADD MSTORE POP JUMP JUMPDEST PUSH1 0x0 PUSH2 0xAA8 PUSH1 0x12 DUP4 PUSH2 0xA61 JUMP JUMPDEST SWAP2 POP PUSH2 0xAB3 DUP3 PUSH2 0xA72 JUMP JUMPDEST PUSH1 0x20 DUP3 ADD SWAP1 POP SWAP2 SWAP1 POP JUMP JUMPDEST PUSH1 0x0 PUSH1 0x20 DUP3 ADD SWAP1 POP DUP2 DUP2 SUB PUSH1 0x0 DUP4 ADD MSTORE PUSH2 0xAD7 DUP2 PUSH2 0xA9B JUMP JUMPDEST SWAP1 POP SWAP2 SWAP1 POP JUMP JUMPDEST PUSH32 0x4E6F7420696E76616C6964000000000000000000000000000000000000000000 PUSH1 0x0 DUP3 ADD MSTORE POP JUMP JUMPDEST PUSH1 0x0 PUSH2 0xB14 PUSH1 0xB DUP4 PUSH2 0xA61 JUMP JUMPDEST SWAP2 POP PUSH2 0xB1F DUP3 PUSH2 0xADE JUMP JUMPDEST PUSH1 0x20 DUP3 ADD SWAP1 POP SWAP2 SWAP1 POP JUMP JUMPDEST PUSH1 0x0 PUSH1 0x20 DUP3 ADD SWAP1 POP DUP2 DUP2 SUB PUSH1 0x0 DUP4 ADD MSTORE PUSH2 0xB43 DUP2 PUSH2 0xB07 JUMP JUMPDEST SWAP1 POP SWAP2 SWAP1 POP JUMP JUMPDEST PUSH32 0x4E487B7100000000000000000000000000000000000000000000000000000000 PUSH1 0x0 MSTORE PUSH1 0x11 PUSH1 0x4 MSTORE PUSH1 0x24 PUSH1 0x0 REVERT JUMPDEST PUSH1 0x0 PUSH2 0xB84 DUP3 PUSH2 0x8C1 JUMP JUMPDEST SWAP2 POP PUSH2 0xB8F DUP4 PUSH2 0x8C1 JUMP JUMPDEST SWAP3 POP DUP3 DUP3 SUB SWAP1 POP DUP2 DUP2 GT ISZERO PUSH2 0xBA7 JUMPI PUSH2 0xBA6 PUSH2 0xB4A JUMP JUMPDEST JUMPDEST SWAP3 SWAP2 POP POP JUMP JUMPDEST PUSH1 0x0 PUSH2 0xBB8 DUP3 PUSH2 0x8C1 JUMP JUMPDEST SWAP2 POP PUSH2 0xBC3 DUP4 PUSH2 0x8C1 JUMP JUMPDEST SWAP3 POP DUP3 DUP3 ADD SWAP1 POP DUP1 DUP3 GT ISZERO PUSH2 0xBDB JUMPI PUSH2 0xBDA PUSH2 0xB4A JUMP JUMPDEST JUMPDEST SWAP3 SWAP2 POP POP JUMP JUMPDEST PUSH1 0x0 DUP2 SWAP1 POP SWAP2 SWAP1 POP JUMP JUMPDEST PUSH2 0xBFC PUSH2 0xBF7 DUP3 PUSH2 0x8C1 JUMP JUMPDEST PUSH2 0xBE1 JUMP JUMPDEST DUP3 MSTORE POP POP JUMP JUMPDEST PUSH1 0x0 PUSH20 0xFFFFFFFFFFFFFFFFFFFFFFFFFFFFFFFFFFFFFFFF DUP3 AND SWAP1 POP SWAP2 SWAP1 POP JUMP JUMPDEST PUSH1 0x0 PUSH2 0xC2D DUP3 PUSH2 0xC02 JUMP JUMPDEST SWAP1 POP SWAP2 SWAP1 POP JUMP JUMPDEST PUSH1 0x0 DUP2 PUSH1 0x60 SHL SWAP1 POP SWAP2 SWAP1 POP JUMP JUMPDEST PUSH1 0x0 PUSH2 0xC4C DUP3 PUSH2 0xC34 JUMP JUMPDEST SWAP1 POP SWAP2 SWAP1 POP JUMP JUMPDEST PUSH1 0x0 PUSH2 0xC5E DUP3 PUSH2 0xC41 JUMP JUMPDEST SWAP1 POP SWAP2 SWAP1 POP JUMP JUMPDEST PUSH2 0xC76 PUSH2 0xC71 DUP3 PUSH2 0xC22 JUMP JUMPDEST PUSH2 0xC53 JUMP JUMPDEST DUP3 MSTORE POP POP JUMP JUMPDEST PUSH32 0x4E487B7100000000000000000000000000000000000000000000000000000000 PUSH1 0x0 MSTORE PUSH1 0x22 PUSH1 0x4 MSTORE PUSH1 0x24 PUSH1 0x0 REVERT JUMPDEST PUSH1 0x0 PUSH1 0x2 DUP3 DIV SWAP1 POP PUSH1 0x1 DUP3 AND DUP1 PUSH2 0xCC3 JUMPI PUSH1 0x7F DUP3 AND SWAP2 POP JUMPDEST PUSH1 0x20 DUP3 LT DUP2 SUB PUSH2 0xCD6 JUMPI PUSH2 0xCD5 PUSH2 0xC7C JUMP JUMPDEST JUMPDEST POP SWAP2 SWAP1 POP JUMP JUMPDEST PUSH1 0x0 DUP2 SWAP1 POP SWAP3 SWAP2 POP POP JUMP JUMPDEST PUSH1 0x0 DUP2 SWAP1 POP DUP2 PUSH1 0x0 MSTORE PUSH1 0x20 PUSH1 0x0 KECCAK256 SWAP1 POP SWAP2 SWAP1 POP JUMP JUMPDEST PUSH1 0x0 DUP2 SLOAD PUSH2 0xD09 DUP2 PUSH2 0xCAB JUMP JUMPDEST PUSH2 0xD13 DUP2 DUP7 PUSH2 0xCDC JUMP JUMPDEST SWAP5 POP PUSH1 0x1 DUP3 AND PUSH1 0x0 DUP2 EQ PUSH2 0xD2E JUMPI PUSH1 0x1 DUP2 EQ PUSH2 0xD43 JUMPI PUSH2 0xD76 JUMP JUMPDEST PUSH1 0xFF NOT DUP4 AND DUP7 MSTORE DUP2 ISZERO ISZERO DUP3 MUL DUP7 ADD SWAP4 POP PUSH2 0xD76 JUMP JUMPDEST PUSH2 0xD4C DUP6 PUSH2 0xCE7 JUMP JUMPDEST PUSH1 0x0 JUMPDEST DUP4 DUP2 LT ISZERO PUSH2 0xD6E JUMPI DUP2 SLOAD DUP2 DUP10 ADD MSTORE PUSH1 0x1 DUP3 ADD SWAP2 POP PUSH1 0x20 DUP2 ADD SWAP1 POP PUSH2 0xD4F JUMP JUMPDEST DUP4 DUP9 ADD SWAP6 POP POP POP JUMPDEST POP POP POP SWAP3 SWAP2 POP POP JUMP JUMPDEST PUSH1 0x0 DUP2 MLOAD SWAP1 POP SWAP2 SWAP1 POP JUMP JUMPDEST PUSH1 0x0 JUMPDEST DUP4 DUP2 LT ISZERO PUSH2 0xDA8 JUMPI DUP1 DUP3 ADD MLOAD DUP2 DUP5 ADD MSTORE PUSH1 0x20 DUP2 ADD SWAP1 POP PUSH2 0xD8D JUMP JUMPDEST PUSH1 0x0 DUP5 DUP5 ADD MSTORE POP POP POP POP JUMP JUMPDEST PUSH1 0x0 PUSH2 0xDBF DUP3 PUSH2 0xD7F JUMP JUMPDEST PUSH2 0xDC9 DUP2 DUP6 PUSH2 0xCDC JUMP JUMPDEST SWAP4 POP PUSH2 0xDD9 DUP2 DUP6 PUSH1 0x20 DUP7 ADD PUSH2 0xD8A JUMP JUMPDEST DUP1 DUP5 ADD SWAP2 POP POP SWAP3 SWAP2 POP POP JUMP JUMPDEST PUSH1 0x0 PUSH2 0xDF1 DUP3 DUP10 PUSH2 0xBEB JUMP JUMPDEST PUSH1 0x20 DUP3 ADD SWAP2 POP PUSH2 0xE01 DUP3 DUP9 PUSH2 0xBEB JUMP JUMPDEST PUSH1 0x20 DUP3 ADD SWAP2 POP PUSH2 0xE11 DUP3 DUP8 PUSH2 0xBEB JUMP JUMPDEST PUSH1 0x20 DUP3 ADD SWAP2 POP PUSH2 0xE21 DUP3 DUP7 PUSH2 0xC65 JUMP JUMPDEST PUSH1 0x14 DUP3 ADD SWAP2 POP PUSH2 0xE31 DUP3 DUP6 PUSH2 0xCFC JUMP JUMPDEST SWAP2 POP PUSH2 0xE3D DUP3 DUP5 PUSH2 0xDB4 JUMP JUMPDEST SWAP2 POP DUP2 SWAP1 POP SWAP8 SWAP7 POP POP POP POP POP POP POP JUMP JUMPDEST PUSH1 0x0 DUP2 SWAP1 POP SWAP2 SWAP1 POP JUMP JUMPDEST PUSH1 0x0 DUP2 SWAP1 POP SWAP2 SWAP1 POP JUMP JUMPDEST PUSH2 0xE72 PUSH2 0xE6D DUP3 PUSH2 0xE4D JUMP JUMPDEST PUSH2 0xE57 JUMP JUMPDEST DUP3 MSTORE POP POP JUMP JUMPDEST PUSH1 0x0 PUSH2 0xE84 DUP3 DUP5 PUSH2 0xE61 JUMP JUMPDEST PUSH1 0x20 DUP3 ADD SWAP2 POP DUP2 SWAP1 POP SWAP3 SWAP2 POP POP JUMP JUMPDEST PUSH32 0x4E487B7100000000000000000000000000000000000000000000000000000000 PUSH1 0x0 MSTORE PUSH1 0x12 PUSH1 0x4 MSTORE PUSH1 0x24 PUSH1 0x0 REVERT JUMPDEST PUSH1 0x0 PUSH2 0xECD DUP3 PUSH2 0x8C1 JUMP JUMPDEST SWAP2 POP PUSH2 0xED8 DUP4 PUSH2 0x8C1 JUMP JUMPDEST SWAP3 POP DUP3 PUSH2 0xEE8 JUMPI PUSH2 0xEE7 PUSH2 0xE93 JUMP JUMPDEST JUMPDEST DUP3 DUP3 MOD SWAP1 POP SWAP3 SWAP2 POP POP JUMP JUMPDEST PUSH2 0xEFC DUP2 PUSH2 0xE4D JUMP JUMPDEST DUP3 MSTORE POP POP JUMP JUMPDEST PUSH1 0x0 PUSH1 0x40 DUP3 ADD SWAP1 POP PUSH2 0xF17 PUSH1 0x0 DUP4 ADD DUP6 PUSH2 0xEF3 JUMP JUMPDEST PUSH2 0xF24 PUSH1 0x20 DUP4 ADD DUP5 PUSH2 0xEF3 JUMP JUMPDEST SWAP4 SWAP3 POP POP POP JUMP JUMPDEST PUSH32 0x4D65737361676556657269666965723A20696E76616C6964207369676E617475 PUSH1 0x0 DUP3 ADD MSTORE PUSH32 0x7265000000000000000000000000000000000000000000000000000000000000 PUSH1 0x20 DUP3 ADD MSTORE POP JUMP JUMPDEST PUSH1 0x0 PUSH2 0xF87 PUSH1 0x22 DUP4 PUSH2 0xA61 JUMP JUMPDEST SWAP2 POP PUSH2 0xF92 DUP3 PUSH2 0xF2B JUMP JUMPDEST PUSH1 0x40 DUP3 ADD SWAP1 POP SWAP2 SWAP1 POP JUMP JUMPDEST PUSH1 0x0 PUSH1 0x20 DUP3 ADD SWAP1 POP DUP2 DUP2 SUB PUSH1 0x0 DUP4 ADD MSTORE PUSH2 0xFB6 DUP2 PUSH2 0xF7A JUMP JUMPDEST SWAP1 POP SWAP2 SWAP1 POP JUMP JUMPDEST PUSH32 0x45434453415570677261646561626C653A20696E76616C6964207369676E6174 PUSH1 0x0 DUP3 ADD MSTORE PUSH32 0x7572650000000000000000000000000000000000000000000000000000000000 PUSH1 0x20 DUP3 ADD MSTORE POP JUMP JUMPDEST PUSH1 0x0 PUSH2 0x1019 PUSH1 0x23 DUP4 PUSH2 0xA61 JUMP JUMPDEST SWAP2 POP PUSH2 0x1024 DUP3 PUSH2 0xFBD JUMP JUMPDEST PUSH1 0x40 DUP3 ADD SWAP1 POP SWAP2 SWAP1 POP JUMP JUMPDEST PUSH1 0x0 PUSH1 0x20 DUP3 ADD SWAP1 POP DUP2 DUP2 SUB PUSH1 0x0 DUP4 ADD MSTORE PUSH2 0x1048 DUP2 PUSH2 0x100C JUMP JUMPDEST SWAP1 POP SWAP2 SWAP1 POP JUMP JUMPDEST PUSH32 0x1901000000000000000000000000000000000000000000000000000000000000 PUSH1 0x0 DUP3 ADD MSTORE POP JUMP JUMPDEST PUSH1 0x0 PUSH2 0x1085 PUSH1 0x2 DUP4 PUSH2 0xCDC JUMP JUMPDEST SWAP2 POP PUSH2 0x1090 DUP3 PUSH2 0x104F JUMP JUMPDEST PUSH1 0x2 DUP3 ADD SWAP1 POP SWAP2 SWAP1 POP JUMP JUMPDEST PUSH1 0x0 PUSH2 0x10A6 DUP3 PUSH2 0x1078 JUMP JUMPDEST SWAP2 POP PUSH2 0x10B2 DUP3 DUP6 PUSH2 0xE61 JUMP JUMPDEST PUSH1 0x20 DUP3 ADD SWAP2 POP PUSH2 0x10C2 DUP3 DUP5 PUSH2 0xE61 JUMP JUMPDEST PUSH1 0x20 DUP3 ADD SWAP2 POP DUP2 SWAP1 POP SWAP4 SWAP3 POP POP POP JUMP JUMPDEST PUSH32 0x4E487B7100000000000000000000000000000000000000000000000000000000 PUSH1 0x0 MSTORE PUSH1 0x21 PUSH1 0x4 MSTORE PUSH1 0x24 PUSH1 0x0 REVERT JUMPDEST PUSH32 0x45434453413A20696E76616C6964207369676E61747572650000000000000000 PUSH1 0x0 DUP3 ADD MSTORE POP JUMP JUMPDEST PUSH1 0x0 PUSH2 0x1137 PUSH1 0x18 DUP4 PUSH2 0xA61 JUMP JUMPDEST SWAP2 POP PUSH2 0x1142 DUP3 PUSH2 0x1101 JUMP JUMPDEST PUSH1 0x20 DUP3 ADD SWAP1 POP SWAP2 SWAP1 POP JUMP JUMPDEST PUSH1 0x0 PUSH1 0x20 DUP3 ADD SWAP1 POP DUP2 DUP2 SUB PUSH1 0x0 DUP4 ADD MSTORE PUSH2 0x1166 DUP2 PUSH2 0x112A JUMP JUMPDEST SWAP1 POP SWAP2 SWAP1 POP JUMP JUMPDEST PUSH32 0x45434453413A20696E76616C6964207369676E6174757265206C656E67746800 PUSH1 0x0 DUP3 ADD MSTORE POP JUMP JUMPDEST PUSH1 0x0 PUSH2 0x11A3 PUSH1 0x1F DUP4 PUSH2 0xA61 JUMP JUMPDEST SWAP2 POP PUSH2 0x11AE DUP3 PUSH2 0x116D JUMP JUMPDEST PUSH1 0x20 DUP3 ADD SWAP1 POP SWAP2 SWAP1 POP JUMP JUMPDEST PUSH1 0x0 PUSH1 0x20 DUP3 ADD SWAP1 POP DUP2 DUP2 SUB PUSH1 0x0 DUP4 ADD MSTORE PUSH2 0x11D2 DUP2 PUSH2 0x1196 JUMP JUMPDEST SWAP1 POP SWAP2 SWAP1 POP JUMP JUMPDEST PUSH32 0x45434453413A20696E76616C6964207369676E6174757265202773272076616C PUSH1 0x0 DUP3 ADD MSTORE PUSH32 0x7565000000000000000000000000000000000000000000000000000000000000 PUSH1 0x20 DUP3 ADD MSTORE POP JUMP JUMPDEST PUSH1 0x0 PUSH2 0x1235 PUSH1 0x22 DUP4 PUSH2 0xA61 JUMP JUMPDEST SWAP2 POP PUSH2 0x1240 DUP3 PUSH2 0x11D9 JUMP JUMPDEST PUSH1 0x40 DUP3 ADD SWAP1 POP SWAP2 SWAP1 POP JUMP JUMPDEST PUSH1 0x0 PUSH1 0x20 DUP3 ADD SWAP1 POP DUP2 DUP2 SUB PUSH1 0x0 DUP4 ADD MSTORE PUSH2 0x1264 DUP2 PUSH2 0x1228 JUMP JUMPDEST SWAP1 POP SWAP2 SWAP1 POP JUMP JUMPDEST PUSH2 0x1274 DUP2 PUSH2 0xC22 JUMP JUMPDEST DUP3 MSTORE POP POP JUMP JUMPDEST PUSH1 0x0 PUSH1 0xA0 DUP3 ADD SWAP1 POP PUSH2 0x128F PUSH1 0x0 DUP4 ADD DUP9 PUSH2 0xEF3 JUMP JUMPDEST PUSH2 0x129C PUSH1 0x20 DUP4 ADD DUP8 PUSH2 0xEF3 JUMP JUMPDEST PUSH2 0x12A9 PUSH1 0x40 DUP4 ADD DUP7 PUSH2 0xEF3 JUMP JUMPDEST PUSH2 0x12B6 PUSH1 0x60 DUP4 ADD DUP6 PUSH2 0xA37 JUMP JUMPDEST PUSH2 0x12C3 PUSH1 0x80 DUP4 ADD DUP5 PUSH2 0x126B JUMP JUMPDEST SWAP7 SWAP6 POP POP POP POP POP POP JUMP JUMPDEST PUSH1 0x0 PUSH1 0xFF DUP3 AND SWAP1 POP SWAP2 SWAP1 POP JUMP JUMPDEST PUSH2 0x12E3 DUP2 PUSH2 0x12CD JUMP JUMPDEST DUP3 MSTORE POP POP JUMP JUMPDEST PUSH1 0x0 PUSH1 0x80 DUP3 ADD SWAP1 POP PUSH2 0x12FE PUSH1 0x0 DUP4 ADD DUP8 PUSH2 0xEF3 JUMP JUMPDEST PUSH2 0x130B PUSH1 0x20 DUP4 ADD DUP7 PUSH2 0x12DA JUMP JUMPDEST PUSH2 0x1318 PUSH1 0x40 DUP4 ADD DUP6 PUSH2 0xEF3 JUMP JUMPDEST PUSH2 0x1325 PUSH1 0x60 DUP4 ADD DUP5 PUSH2 0xEF3 JUMP JUMPDEST SWAP6 SWAP5 POP POP POP POP POP JUMP INVALID LOG2 PUSH5 0x6970667358 0x22 SLT KECCAK256 0xE6 BALANCE LOG1 0x2C 0xFC 0xE2 0xF9 PUSH1 0x83 PUSH13 0xAB658BE3C515916EB0A4163C68 0xC4 0xAF PUSH2 0x6E10 BALANCE 0xCA CALLDATASIZE 0xC PUSH5 0x736F6C6343 STOP ADDMOD GT STOP CALLER "},"methodIdentifiers":{"_getRandomNumberInRange(string,uint256,uint256,bytes)":"da47758d"}}}}}