{"contracts/RandomNumber.sol":{"RandomNumber":{"abi":[{"inputs":[{"internalType":"string","name":"_seed","type":"string"},{"internalType":"string","name":"_name","type":"string"},{"internalType":"string","name":"_version","type":"string"}],"stateMutability":"nonpayable","type":"constructor"},{"inputs":[{"internalType":"uint256","name":"_tokenFromUniswap","type":"uint256"},{"internalType":"uint256","name":"_from","type":"uint256"},{"internalType":"uint256","name":"_to","type":"uint256"}],"name":"_getRandomNumberInRange","outputs":[{"internalType":"uint256","name":"","type":"uint256"}],"stateMutability":"nonpayable","type":"function"},{"inputs":[{"internalType":"uint256","name":"_aNumber","type":"uint256"},{"internalType":"bytes","name":"_signature","type":"bytes"}],"name":"validateAmountFunction","outputs":[{"internalType":"uint256","name":"","type":"uint256"}],"stateMutability":"nonpayable","type":"function"}],"evm":{"bytecode":{"linkReferences":{},"object":"6101406040523480156200001257600080fd5b50604051620019cf380380620019cf8339818101604052810190620000389190620002de565b818160008280519060200120905060008280519060200120905060007f8b73c3c69bb8fe3d512ecc4cf759cc79239f7b179b0ffacaa9a75d522b39400f90508260e081815250508161010081815250504660a08181525050620000a38184846200010f60201b60201c565b608081815250503073ffffffffffffffffffffffffffffffffffffffff1660c08173ffffffffffffffffffffffffffffffffffffffff168152505080610120818152505050505050508260009081620000fd9190620005e2565b50600060018190555050505062000797565b600083838346306040516020016200012c9594939291906200073a565b6040516020818303038152906040528051906020012090509392505050565b6000604051905090565b600080fd5b600080fd5b600080fd5b600080fd5b6000601f19601f8301169050919050565b7f4e487b7100000000000000000000000000000000000000000000000000000000600052604160045260246000fd5b620001b48262000169565b810181811067ffffffffffffffff82111715620001d657620001d56200017a565b5b80604052505050565b6000620001eb6200014b565b9050620001f98282620001a9565b919050565b600067ffffffffffffffff8211156200021c576200021b6200017a565b5b620002278262000169565b9050602081019050919050565b60005b838110156200025457808201518184015260208101905062000237565b60008484015250505050565b6000620002776200027184620001fe565b620001df565b90508281526020810184848401111562000296576200029562000164565b5b620002a384828562000234565b509392505050565b600082601f830112620002c357620002c26200015f565b5b8151620002d584826020860162000260565b91505092915050565b600080600060608486031215620002fa57620002f962000155565b5b600084015167ffffffffffffffff8111156200031b576200031a6200015a565b5b6200032986828701620002ab565b935050602084015167ffffffffffffffff8111156200034d576200034c6200015a565b5b6200035b86828701620002ab565b925050604084015167ffffffffffffffff8111156200037f576200037e6200015a565b5b6200038d86828701620002ab565b9150509250925092565b600081519050919050565b7f4e487b7100000000000000000000000000000000000000000000000000000000600052602260045260246000fd5b60006002820490506001821680620003ea57607f821691505b6020821081036200040057620003ff620003a2565b5b50919050565b60008190508160005260206000209050919050565b60006020601f8301049050919050565b600082821b905092915050565b6000600883026200046a7fffffffffffffffffffffffffffffffffffffffffffffffffffffffffffffffff826200042b565b6200047686836200042b565b95508019841693508086168417925050509392505050565b6000819050919050565b6000819050919050565b6000620004c3620004bd620004b7846200048e565b62000498565b6200048e565b9050919050565b6000819050919050565b620004df83620004a2565b620004f7620004ee82620004ca565b84845462000438565b825550505050565b600090565b6200050e620004ff565b6200051b818484620004d4565b505050565b5b8181101562000543576200053760008262000504565b60018101905062000521565b5050565b601f82111562000592576200055c8162000406565b62000567846200041b565b8101602085101562000577578190505b6200058f62000586856200041b565b83018262000520565b50505b505050565b600082821c905092915050565b6000620005b76000198460080262000597565b1980831691505092915050565b6000620005d28383620005a4565b9150826002028217905092915050565b620005ed8262000397565b67ffffffffffffffff8111156200060957620006086200017a565b5b620006158254620003d1565b6200062282828562000547565b600060209050601f8311600181146200065a576000841562000645578287015190505b620006518582620005c4565b865550620006c1565b601f1984166200066a8662000406565b60005b8281101562000694578489015182556001820191506020850194506020810190506200066d565b86831015620006b45784890151620006b0601f891682620005a4565b8355505b6001600288020188555050505b505050505050565b6000819050919050565b620006de81620006c9565b82525050565b620006ef816200048e565b82525050565b600073ffffffffffffffffffffffffffffffffffffffff82169050919050565b60006200072282620006f5565b9050919050565b620007348162000715565b82525050565b600060a082019050620007516000830188620006d3565b620007606020830187620006d3565b6200076f6040830186620006d3565b6200077e6060830185620006e4565b6200078d608083018462000729565b9695505050505050565b60805160a05160c05160e05161010051610120516111e8620007e760003960006103d80152600061041a015260006103f90152600061032e01526000610384015260006103ad01526111e86000f3fe608060405234801561001057600080fd5b50600436106100365760003560e01c8063173c688d1461003b57806337b44df31461006b575b600080fd5b610055600480360381019061005091906108da565b61009b565b6040516100629190610945565b60405180910390f35b61008560048036038101906100809190610960565b6101f4565b6040516100929190610945565b60405180910390f35b6000806100ef7f734fff2a04a48ef8e4c075d2d256796a5e56debb4990ef95df490f3bdbc54234856040516020016100d49291906109cc565b604051602081830303815290604052805190602001206102e9565b905060006100fd8285610303565b90503373ffffffffffffffffffffffffffffffffffffffff168173ffffffffffffffffffffffffffffffffffffffff161461016d576040517f08c379a000000000000000000000000000000000000000000000000000000000815260040161016490610a78565b60405180910390fd5b600073ffffffffffffffffffffffffffffffffffffffff168173ffffffffffffffffffffffffffffffffffffffff16036101dc576040517f08c379a00000000000000000000000000000000000000000000000000000000081526004016101d390610b0a565b60405180910390fd5b6101ea8560016103e86101f4565b9250505092915050565b6000828211610238576040517f08c379a000000000000000000000000000000000000000000000000000000000815260040161022f90610b76565b60405180910390fd5b6000600184846102489190610bc5565b6102529190610bf9565b43444260006001548a60405160200161027096959493929190610d51565b604051602081830303815290604052805190602001206040516020016102969190610dde565b6040516020818303038152906040528051906020012060001c6102b99190610e28565b9050600160008154809291906102ce90610e59565b919050555083816102df9190610bf9565b9150509392505050565b60006102fc6102f661032a565b83610444565b9050919050565b60008060006103128585610477565b9150915061031f816104c8565b819250505092915050565b60007f000000000000000000000000000000000000000000000000000000000000000073ffffffffffffffffffffffffffffffffffffffff163073ffffffffffffffffffffffffffffffffffffffff161480156103a657507f000000000000000000000000000000000000000000000000000000000000000046145b156103d3577f00000000000000000000000000000000000000000000000000000000000000009050610441565b61043e7f00000000000000000000000000000000000000000000000000000000000000007f00000000000000000000000000000000000000000000000000000000000000007f000000000000000000000000000000000000000000000000000000000000000061062e565b90505b90565b60008282604051602001610459929190610eed565b60405160208183030381529060405280519060200120905092915050565b60008060418351036104b85760008060006020860151925060408601519150606086015160001a90506104ac87828585610668565b945094505050506104c1565b60006002915091505b9250929050565b600060048111156104dc576104db610f24565b5b8160048111156104ef576104ee610f24565b5b031561062b576001600481111561050957610508610f24565b5b81600481111561051c5761051b610f24565b5b0361055c576040517f08c379a000000000000000000000000000000000000000000000000000000000815260040161055390610f9f565b60405180910390fd5b600260048111156105705761056f610f24565b5b81600481111561058357610582610f24565b5b036105c3576040517f08c379a00000000000000000000000000000000000000000000000000000000081526004016105ba9061100b565b60405180910390fd5b600360048111156105d7576105d6610f24565b5b8160048111156105ea576105e9610f24565b5b0361062a576040517f08c379a00000000000000000000000000000000000000000000000000000000081526004016106219061109d565b60405180910390fd5b5b50565b600083838346306040516020016106499594939291906110fe565b6040516020818303038152906040528051906020012090509392505050565b6000807f7fffffffffffffffffffffffffffffff5d576e7357a4501ddfe92f46681b20a08360001c11156106a3576000600391509150610741565b6000600187878787604051600081526020016040526040516106c8949392919061116d565b6020604051602081039080840390855afa1580156106ea573d6000803e3d6000fd5b505050602060405103519050600073ffffffffffffffffffffffffffffffffffffffff168173ffffffffffffffffffffffffffffffffffffffff160361073857600060019250925050610741565b80600092509250505b94509492505050565b6000604051905090565b600080fd5b600080fd5b6000819050919050565b6107718161075e565b811461077c57600080fd5b50565b60008135905061078e81610768565b92915050565b600080fd5b600080fd5b6000601f19601f8301169050919050565b7f4e487b7100000000000000000000000000000000000000000000000000000000600052604160045260246000fd5b6107e78261079e565b810181811067ffffffffffffffff82111715610806576108056107af565b5b80604052505050565b600061081961074a565b905061082582826107de565b919050565b600067ffffffffffffffff821115610845576108446107af565b5b61084e8261079e565b9050602081019050919050565b82818337600083830152505050565b600061087d6108788461082a565b61080f565b90508281526020810184848401111561089957610898610799565b5b6108a484828561085b565b509392505050565b600082601f8301126108c1576108c0610794565b5b81356108d184826020860161086a565b91505092915050565b600080604083850312156108f1576108f0610754565b5b60006108ff8582860161077f565b925050602083013567ffffffffffffffff8111156109205761091f610759565b5b61092c858286016108ac565b9150509250929050565b61093f8161075e565b82525050565b600060208201905061095a6000830184610936565b92915050565b60008060006060848603121561097957610978610754565b5b60006109878682870161077f565b93505060206109988682870161077f565b92505060406109a98682870161077f565b9150509250925092565b6000819050919050565b6109c6816109b3565b82525050565b60006040820190506109e160008301856109bd565b6109ee6020830184610936565b9392505050565b600082825260208201905092915050565b7f4d65737361676556657269666965723a20696e76616c6964207369676e61747560008201527f7265000000000000000000000000000000000000000000000000000000000000602082015250565b6000610a626022836109f5565b9150610a6d82610a06565b604082019050919050565b60006020820190508181036000830152610a9181610a55565b9050919050565b7f45434453415570677261646561626c653a20696e76616c6964207369676e617460008201527f7572650000000000000000000000000000000000000000000000000000000000602082015250565b6000610af46023836109f5565b9150610aff82610a98565b604082019050919050565b60006020820190508181036000830152610b2381610ae7565b9050919050565b7f52616e6765206973206e6f742076616c69640000000000000000000000000000600082015250565b6000610b606012836109f5565b9150610b6b82610b2a565b602082019050919050565b60006020820190508181036000830152610b8f81610b53565b9050919050565b7f4e487b7100000000000000000000000000000000000000000000000000000000600052601160045260246000fd5b6000610bd08261075e565b9150610bdb8361075e565b9250828203905081811115610bf357610bf2610b96565b5b92915050565b6000610c048261075e565b9150610c0f8361075e565b9250828201905080821115610c2757610c26610b96565b5b92915050565b6000819050919050565b610c48610c438261075e565b610c2d565b82525050565b7f4e487b7100000000000000000000000000000000000000000000000000000000600052602260045260246000fd5b60006002820490506001821680610c9557607f821691505b602082108103610ca857610ca7610c4e565b5b50919050565b600081905092915050565b60008190508160005260206000209050919050565b60008154610cdb81610c7d565b610ce58186610cae565b94506001821660008114610d005760018114610d1557610d48565b60ff1983168652811515820286019350610d48565b610d1e85610cb9565b60005b83811015610d4057815481890152600182019150602081019050610d21565b838801955050505b50505092915050565b6000610d5d8289610c37565b602082019150610d6d8288610c37565b602082019150610d7d8287610c37565b602082019150610d8d8286610cce565b9150610d998285610c37565b602082019150610da98284610c37565b602082019150819050979650505050505050565b6000819050919050565b610dd8610dd3826109b3565b610dbd565b82525050565b6000610dea8284610dc7565b60208201915081905092915050565b7f4e487b7100000000000000000000000000000000000000000000000000000000600052601260045260246000fd5b6000610e338261075e565b9150610e3e8361075e565b925082610e4e57610e4d610df9565b5b828206905092915050565b6000610e648261075e565b91507fffffffffffffffffffffffffffffffffffffffffffffffffffffffffffffffff8203610e9657610e95610b96565b5b600182019050919050565b7f1901000000000000000000000000000000000000000000000000000000000000600082015250565b6000610ed7600283610cae565b9150610ee282610ea1565b600282019050919050565b6000610ef882610eca565b9150610f048285610dc7565b602082019150610f148284610dc7565b6020820191508190509392505050565b7f4e487b7100000000000000000000000000000000000000000000000000000000600052602160045260246000fd5b7f45434453413a20696e76616c6964207369676e61747572650000000000000000600082015250565b6000610f896018836109f5565b9150610f9482610f53565b602082019050919050565b60006020820190508181036000830152610fb881610f7c565b9050919050565b7f45434453413a20696e76616c6964207369676e6174757265206c656e67746800600082015250565b6000610ff5601f836109f5565b915061100082610fbf565b602082019050919050565b6000602082019050818103600083015261102481610fe8565b9050919050565b7f45434453413a20696e76616c6964207369676e6174757265202773272076616c60008201527f7565000000000000000000000000000000000000000000000000000000000000602082015250565b60006110876022836109f5565b91506110928261102b565b604082019050919050565b600060208201905081810360008301526110b68161107a565b9050919050565b600073ffffffffffffffffffffffffffffffffffffffff82169050919050565b60006110e8826110bd565b9050919050565b6110f8816110dd565b82525050565b600060a08201905061111360008301886109bd565b61112060208301876109bd565b61112d60408301866109bd565b61113a6060830185610936565b61114760808301846110ef565b9695505050505050565b600060ff82169050919050565b61116781611151565b82525050565b600060808201905061118260008301876109bd565b61118f602083018661115e565b61119c60408301856109bd565b6111a960608301846109bd565b9594505050505056fea26469706673582212201963d42a9a7acad9dd821313d79d41d50051b62e58ea0a08772f1ec0bcc17b9564736f6c63430008110033","opcodes":"PUSH2 0x140 PUSH1 0x40 MSTORE CALLVALUE DUP1 ISZERO PUSH3 0x12 JUMPI PUSH1 0x0 DUP1 REVERT JUMPDEST POP PUSH1 0x40 MLOAD PUSH3 0x19CF CODESIZE SUB DUP1 PUSH3 0x19CF DUP4 CODECOPY DUP2 DUP2 ADD PUSH1 0x40 MSTORE DUP2 ADD SWAP1 PUSH3 0x38 SWAP2 SWAP1 PUSH3 0x2DE JUMP JUMPDEST DUP2 DUP2 PUSH1 0x0 DUP3 DUP1 MLOAD SWAP1 PUSH1 0x20 ADD KECCAK256 SWAP1 POP PUSH1 0x0 DUP3 DUP1 MLOAD SWAP1 PUSH1 0x20 ADD KECCAK256 SWAP1 POP PUSH1 0x0 PUSH32 0x8B73C3C69BB8FE3D512ECC4CF759CC79239F7B179B0FFACAA9A75D522B39400F SWAP1 POP DUP3 PUSH1 0xE0 DUP2 DUP2 MSTORE POP POP DUP2 PUSH2 0x100 DUP2 DUP2 MSTORE POP POP CHAINID PUSH1 0xA0 DUP2 DUP2 MSTORE POP POP PUSH3 0xA3 DUP2 DUP5 DUP5 PUSH3 0x10F PUSH1 0x20 SHL PUSH1 0x20 SHR JUMP JUMPDEST PUSH1 0x80 DUP2 DUP2 MSTORE POP POP ADDRESS PUSH20 0xFFFFFFFFFFFFFFFFFFFFFFFFFFFFFFFFFFFFFFFF AND PUSH1 0xC0 DUP2 PUSH20 0xFFFFFFFFFFFFFFFFFFFFFFFFFFFFFFFFFFFFFFFF AND DUP2 MSTORE POP POP DUP1 PUSH2 0x120 DUP2 DUP2 MSTORE POP POP POP POP POP POP POP DUP3 PUSH1 0x0 SWAP1 DUP2 PUSH3 0xFD SWAP2 SWAP1 PUSH3 0x5E2 JUMP JUMPDEST POP PUSH1 0x0 PUSH1 0x1 DUP2 SWAP1 SSTORE POP POP POP POP PUSH3 0x797 JUMP JUMPDEST PUSH1 0x0 DUP4 DUP4 DUP4 CHAINID ADDRESS PUSH1 0x40 MLOAD PUSH1 0x20 ADD PUSH3 0x12C SWAP6 SWAP5 SWAP4 SWAP3 SWAP2 SWAP1 PUSH3 0x73A JUMP JUMPDEST PUSH1 0x40 MLOAD PUSH1 0x20 DUP2 DUP4 SUB SUB DUP2 MSTORE SWAP1 PUSH1 0x40 MSTORE DUP1 MLOAD SWAP1 PUSH1 0x20 ADD KECCAK256 SWAP1 POP SWAP4 SWAP3 POP POP POP JUMP JUMPDEST PUSH1 0x0 PUSH1 0x40 MLOAD SWAP1 POP SWAP1 JUMP JUMPDEST PUSH1 0x0 DUP1 REVERT JUMPDEST PUSH1 0x0 DUP1 REVERT JUMPDEST PUSH1 0x0 DUP1 REVERT JUMPDEST PUSH1 0x0 DUP1 REVERT JUMPDEST PUSH1 0x0 PUSH1 0x1F NOT PUSH1 0x1F DUP4 ADD AND SWAP1 POP SWAP2 SWAP1 POP JUMP JUMPDEST PUSH32 0x4E487B7100000000000000000000000000000000000000000000000000000000 PUSH1 0x0 MSTORE PUSH1 0x41 PUSH1 0x4 MSTORE PUSH1 0x24 PUSH1 0x0 REVERT JUMPDEST PUSH3 0x1B4 DUP3 PUSH3 0x169 JUMP JUMPDEST DUP2 ADD DUP2 DUP2 LT PUSH8 0xFFFFFFFFFFFFFFFF DUP3 GT OR ISZERO PUSH3 0x1D6 JUMPI PUSH3 0x1D5 PUSH3 0x17A JUMP JUMPDEST JUMPDEST DUP1 PUSH1 0x40 MSTORE POP POP POP JUMP JUMPDEST PUSH1 0x0 PUSH3 0x1EB PUSH3 0x14B JUMP JUMPDEST SWAP1 POP PUSH3 0x1F9 DUP3 DUP3 PUSH3 0x1A9 JUMP JUMPDEST SWAP2 SWAP1 POP JUMP JUMPDEST PUSH1 0x0 PUSH8 0xFFFFFFFFFFFFFFFF DUP3 GT ISZERO PUSH3 0x21C JUMPI PUSH3 0x21B PUSH3 0x17A JUMP JUMPDEST JUMPDEST PUSH3 0x227 DUP3 PUSH3 0x169 JUMP JUMPDEST SWAP1 POP PUSH1 0x20 DUP2 ADD SWAP1 POP SWAP2 SWAP1 POP JUMP JUMPDEST PUSH1 0x0 JUMPDEST DUP4 DUP2 LT ISZERO PUSH3 0x254 JUMPI DUP1 DUP3 ADD MLOAD DUP2 DUP5 ADD MSTORE PUSH1 0x20 DUP2 ADD SWAP1 POP PUSH3 0x237 JUMP JUMPDEST PUSH1 0x0 DUP5 DUP5 ADD MSTORE POP POP POP POP JUMP JUMPDEST PUSH1 0x0 PUSH3 0x277 PUSH3 0x271 DUP5 PUSH3 0x1FE JUMP JUMPDEST PUSH3 0x1DF JUMP JUMPDEST SWAP1 POP DUP3 DUP2 MSTORE PUSH1 0x20 DUP2 ADD DUP5 DUP5 DUP5 ADD GT ISZERO PUSH3 0x296 JUMPI PUSH3 0x295 PUSH3 0x164 JUMP JUMPDEST JUMPDEST PUSH3 0x2A3 DUP5 DUP3 DUP6 PUSH3 0x234 JUMP JUMPDEST POP SWAP4 SWAP3 POP POP POP JUMP JUMPDEST PUSH1 0x0 DUP3 PUSH1 0x1F DUP4 ADD SLT PUSH3 0x2C3 JUMPI PUSH3 0x2C2 PUSH3 0x15F JUMP JUMPDEST JUMPDEST DUP2 MLOAD PUSH3 0x2D5 DUP5 DUP3 PUSH1 0x20 DUP7 ADD PUSH3 0x260 JUMP JUMPDEST SWAP2 POP POP SWAP3 SWAP2 POP POP JUMP JUMPDEST PUSH1 0x0 DUP1 PUSH1 0x0 PUSH1 0x60 DUP5 DUP7 SUB SLT ISZERO PUSH3 0x2FA JUMPI PUSH3 0x2F9 PUSH3 0x155 JUMP JUMPDEST JUMPDEST PUSH1 0x0 DUP5 ADD MLOAD PUSH8 0xFFFFFFFFFFFFFFFF DUP2 GT ISZERO PUSH3 0x31B JUMPI PUSH3 0x31A PUSH3 0x15A JUMP JUMPDEST JUMPDEST PUSH3 0x329 DUP7 DUP3 DUP8 ADD PUSH3 0x2AB JUMP JUMPDEST SWAP4 POP POP PUSH1 0x20 DUP5 ADD MLOAD PUSH8 0xFFFFFFFFFFFFFFFF DUP2 GT ISZERO PUSH3 0x34D JUMPI PUSH3 0x34C PUSH3 0x15A JUMP JUMPDEST JUMPDEST PUSH3 0x35B DUP7 DUP3 DUP8 ADD PUSH3 0x2AB JUMP JUMPDEST SWAP3 POP POP PUSH1 0x40 DUP5 ADD MLOAD PUSH8 0xFFFFFFFFFFFFFFFF DUP2 GT ISZERO PUSH3 0x37F JUMPI PUSH3 0x37E PUSH3 0x15A JUMP JUMPDEST JUMPDEST PUSH3 0x38D DUP7 DUP3 DUP8 ADD PUSH3 0x2AB JUMP JUMPDEST SWAP2 POP POP SWAP3 POP SWAP3 POP SWAP3 JUMP JUMPDEST PUSH1 0x0 DUP2 MLOAD SWAP1 POP SWAP2 SWAP1 POP JUMP JUMPDEST PUSH32 0x4E487B7100000000000000000000000000000000000000000000000000000000 PUSH1 0x0 MSTORE PUSH1 0x22 PUSH1 0x4 MSTORE PUSH1 0x24 PUSH1 0x0 REVERT JUMPDEST PUSH1 0x0 PUSH1 0x2 DUP3 DIV SWAP1 POP PUSH1 0x1 DUP3 AND DUP1 PUSH3 0x3EA JUMPI PUSH1 0x7F DUP3 AND SWAP2 POP JUMPDEST PUSH1 0x20 DUP3 LT DUP2 SUB PUSH3 0x400 JUMPI PUSH3 0x3FF PUSH3 0x3A2 JUMP JUMPDEST JUMPDEST POP SWAP2 SWAP1 POP JUMP JUMPDEST PUSH1 0x0 DUP2 SWAP1 POP DUP2 PUSH1 0x0 MSTORE PUSH1 0x20 PUSH1 0x0 KECCAK256 SWAP1 POP SWAP2 SWAP1 POP JUMP JUMPDEST PUSH1 0x0 PUSH1 0x20 PUSH1 0x1F DUP4 ADD DIV SWAP1 POP SWAP2 SWAP1 POP JUMP JUMPDEST PUSH1 0x0 DUP3 DUP3 SHL SWAP1 POP SWAP3 SWAP2 POP POP JUMP JUMPDEST PUSH1 0x0 PUSH1 0x8 DUP4 MUL PUSH3 0x46A PUSH32 0xFFFFFFFFFFFFFFFFFFFFFFFFFFFFFFFFFFFFFFFFFFFFFFFFFFFFFFFFFFFFFFFF DUP3 PUSH3 0x42B JUMP JUMPDEST PUSH3 0x476 DUP7 DUP4 PUSH3 0x42B JUMP JUMPDEST SWAP6 POP DUP1 NOT DUP5 AND SWAP4 POP DUP1 DUP7 AND DUP5 OR SWAP3 POP POP POP SWAP4 SWAP3 POP POP POP JUMP JUMPDEST PUSH1 0x0 DUP2 SWAP1 POP SWAP2 SWAP1 POP JUMP JUMPDEST PUSH1 0x0 DUP2 SWAP1 POP SWAP2 SWAP1 POP JUMP JUMPDEST PUSH1 0x0 PUSH3 0x4C3 PUSH3 0x4BD PUSH3 0x4B7 DUP5 PUSH3 0x48E JUMP JUMPDEST PUSH3 0x498 JUMP JUMPDEST PUSH3 0x48E JUMP JUMPDEST SWAP1 POP SWAP2 SWAP1 POP JUMP JUMPDEST PUSH1 0x0 DUP2 SWAP1 POP SWAP2 SWAP1 POP JUMP JUMPDEST PUSH3 0x4DF DUP4 PUSH3 0x4A2 JUMP JUMPDEST PUSH3 0x4F7 PUSH3 0x4EE DUP3 PUSH3 0x4CA JUMP JUMPDEST DUP5 DUP5 SLOAD PUSH3 0x438 JUMP JUMPDEST DUP3 SSTORE POP POP POP POP JUMP JUMPDEST PUSH1 0x0 SWAP1 JUMP JUMPDEST PUSH3 0x50E PUSH3 0x4FF JUMP JUMPDEST PUSH3 0x51B DUP2 DUP5 DUP5 PUSH3 0x4D4 JUMP JUMPDEST POP POP POP JUMP JUMPDEST JUMPDEST DUP2 DUP2 LT ISZERO PUSH3 0x543 JUMPI PUSH3 0x537 PUSH1 0x0 DUP3 PUSH3 0x504 JUMP JUMPDEST PUSH1 0x1 DUP2 ADD SWAP1 POP PUSH3 0x521 JUMP JUMPDEST POP POP JUMP JUMPDEST PUSH1 0x1F DUP3 GT ISZERO PUSH3 0x592 JUMPI PUSH3 0x55C DUP2 PUSH3 0x406 JUMP JUMPDEST PUSH3 0x567 DUP5 PUSH3 0x41B JUMP JUMPDEST DUP2 ADD PUSH1 0x20 DUP6 LT ISZERO PUSH3 0x577 JUMPI DUP2 SWAP1 POP JUMPDEST PUSH3 0x58F PUSH3 0x586 DUP6 PUSH3 0x41B JUMP JUMPDEST DUP4 ADD DUP3 PUSH3 0x520 JUMP JUMPDEST POP POP JUMPDEST POP POP POP JUMP JUMPDEST PUSH1 0x0 DUP3 DUP3 SHR SWAP1 POP SWAP3 SWAP2 POP POP JUMP JUMPDEST PUSH1 0x0 PUSH3 0x5B7 PUSH1 0x0 NOT DUP5 PUSH1 0x8 MUL PUSH3 0x597 JUMP JUMPDEST NOT DUP1 DUP4 AND SWAP2 POP POP SWAP3 SWAP2 POP POP JUMP JUMPDEST PUSH1 0x0 PUSH3 0x5D2 DUP4 DUP4 PUSH3 0x5A4 JUMP JUMPDEST SWAP2 POP DUP3 PUSH1 0x2 MUL DUP3 OR SWAP1 POP SWAP3 SWAP2 POP POP JUMP JUMPDEST PUSH3 0x5ED DUP3 PUSH3 0x397 JUMP JUMPDEST PUSH8 0xFFFFFFFFFFFFFFFF DUP2 GT ISZERO PUSH3 0x609 JUMPI PUSH3 0x608 PUSH3 0x17A JUMP JUMPDEST JUMPDEST PUSH3 0x615 DUP3 SLOAD PUSH3 0x3D1 JUMP JUMPDEST PUSH3 0x622 DUP3 DUP3 DUP6 PUSH3 0x547 JUMP JUMPDEST PUSH1 0x0 PUSH1 0x20 SWAP1 POP PUSH1 0x1F DUP4 GT PUSH1 0x1 DUP2 EQ PUSH3 0x65A JUMPI PUSH1 0x0 DUP5 ISZERO PUSH3 0x645 JUMPI DUP3 DUP8 ADD MLOAD SWAP1 POP JUMPDEST PUSH3 0x651 DUP6 DUP3 PUSH3 0x5C4 JUMP JUMPDEST DUP7 SSTORE POP PUSH3 0x6C1 JUMP JUMPDEST PUSH1 0x1F NOT DUP5 AND PUSH3 0x66A DUP7 PUSH3 0x406 JUMP JUMPDEST PUSH1 0x0 JUMPDEST DUP3 DUP2 LT ISZERO PUSH3 0x694 JUMPI DUP5 DUP10 ADD MLOAD DUP3 SSTORE PUSH1 0x1 DUP3 ADD SWAP2 POP PUSH1 0x20 DUP6 ADD SWAP5 POP PUSH1 0x20 DUP2 ADD SWAP1 POP PUSH3 0x66D JUMP JUMPDEST DUP7 DUP4 LT ISZERO PUSH3 0x6B4 JUMPI DUP5 DUP10 ADD MLOAD PUSH3 0x6B0 PUSH1 0x1F DUP10 AND DUP3 PUSH3 0x5A4 JUMP JUMPDEST DUP4 SSTORE POP JUMPDEST PUSH1 0x1 PUSH1 0x2 DUP9 MUL ADD DUP9 SSTORE POP POP POP JUMPDEST POP POP POP POP POP POP JUMP JUMPDEST PUSH1 0x0 DUP2 SWAP1 POP SWAP2 SWAP1 POP JUMP JUMPDEST PUSH3 0x6DE DUP2 PUSH3 0x6C9 JUMP JUMPDEST DUP3 MSTORE POP POP JUMP JUMPDEST PUSH3 0x6EF DUP2 PUSH3 0x48E JUMP JUMPDEST DUP3 MSTORE POP POP JUMP JUMPDEST PUSH1 0x0 PUSH20 0xFFFFFFFFFFFFFFFFFFFFFFFFFFFFFFFFFFFFFFFF DUP3 AND SWAP1 POP SWAP2 SWAP1 POP JUMP JUMPDEST PUSH1 0x0 PUSH3 0x722 DUP3 PUSH3 0x6F5 JUMP JUMPDEST SWAP1 POP SWAP2 SWAP1 POP JUMP JUMPDEST PUSH3 0x734 DUP2 PUSH3 0x715 JUMP JUMPDEST DUP3 MSTORE POP POP JUMP JUMPDEST PUSH1 0x0 PUSH1 0xA0 DUP3 ADD SWAP1 POP PUSH3 0x751 PUSH1 0x0 DUP4 ADD DUP9 PUSH3 0x6D3 JUMP JUMPDEST PUSH3 0x760 PUSH1 0x20 DUP4 ADD DUP8 PUSH3 0x6D3 JUMP JUMPDEST PUSH3 0x76F PUSH1 0x40 DUP4 ADD DUP7 PUSH3 0x6D3 JUMP JUMPDEST PUSH3 0x77E PUSH1 0x60 DUP4 ADD DUP6 PUSH3 0x6E4 JUMP JUMPDEST PUSH3 0x78D PUSH1 0x80 DUP4 ADD DUP5 PUSH3 0x729 JUMP JUMPDEST SWAP7 SWAP6 POP POP POP POP POP POP JUMP JUMPDEST PUSH1 0x80 MLOAD PUSH1 0xA0 MLOAD PUSH1 0xC0 MLOAD PUSH1 0xE0 MLOAD PUSH2 0x100 MLOAD PUSH2 0x120 MLOAD PUSH2 0x11E8 PUSH3 0x7E7 PUSH1 0x0 CODECOPY PUSH1 0x0 PUSH2 0x3D8 ADD MSTORE PUSH1 0x0 PUSH2 0x41A ADD MSTORE PUSH1 0x0 PUSH2 0x3F9 ADD MSTORE PUSH1 0x0 PUSH2 0x32E ADD MSTORE PUSH1 0x0 PUSH2 0x384 ADD MSTORE PUSH1 0x0 PUSH2 0x3AD ADD MSTORE PUSH2 0x11E8 PUSH1 0x0 RETURN INVALID PUSH1 0x80 PUSH1 0x40 MSTORE CALLVALUE DUP1 ISZERO PUSH2 0x10 JUMPI PUSH1 0x0 DUP1 REVERT JUMPDEST POP PUSH1 0x4 CALLDATASIZE LT PUSH2 0x36 JUMPI PUSH1 0x0 CALLDATALOAD PUSH1 0xE0 SHR DUP1 PUSH4 0x173C688D EQ PUSH2 0x3B JUMPI DUP1 PUSH4 0x37B44DF3 EQ PUSH2 0x6B JUMPI JUMPDEST PUSH1 0x0 DUP1 REVERT JUMPDEST PUSH2 0x55 PUSH1 0x4 DUP1 CALLDATASIZE SUB DUP2 ADD SWAP1 PUSH2 0x50 SWAP2 SWAP1 PUSH2 0x8DA JUMP JUMPDEST PUSH2 0x9B JUMP JUMPDEST PUSH1 0x40 MLOAD PUSH2 0x62 SWAP2 SWAP1 PUSH2 0x945 JUMP JUMPDEST PUSH1 0x40 MLOAD DUP1 SWAP2 SUB SWAP1 RETURN JUMPDEST PUSH2 0x85 PUSH1 0x4 DUP1 CALLDATASIZE SUB DUP2 ADD SWAP1 PUSH2 0x80 SWAP2 SWAP1 PUSH2 0x960 JUMP JUMPDEST PUSH2 0x1F4 JUMP JUMPDEST PUSH1 0x40 MLOAD PUSH2 0x92 SWAP2 SWAP1 PUSH2 0x945 JUMP JUMPDEST PUSH1 0x40 MLOAD DUP1 SWAP2 SUB SWAP1 RETURN JUMPDEST PUSH1 0x0 DUP1 PUSH2 0xEF PUSH32 0x734FFF2A04A48EF8E4C075D2D256796A5E56DEBB4990EF95DF490F3BDBC54234 DUP6 PUSH1 0x40 MLOAD PUSH1 0x20 ADD PUSH2 0xD4 SWAP3 SWAP2 SWAP1 PUSH2 0x9CC JUMP JUMPDEST PUSH1 0x40 MLOAD PUSH1 0x20 DUP2 DUP4 SUB SUB DUP2 MSTORE SWAP1 PUSH1 0x40 MSTORE DUP1 MLOAD SWAP1 PUSH1 0x20 ADD KECCAK256 PUSH2 0x2E9 JUMP JUMPDEST SWAP1 POP PUSH1 0x0 PUSH2 0xFD DUP3 DUP6 PUSH2 0x303 JUMP JUMPDEST SWAP1 POP CALLER PUSH20 0xFFFFFFFFFFFFFFFFFFFFFFFFFFFFFFFFFFFFFFFF AND DUP2 PUSH20 0xFFFFFFFFFFFFFFFFFFFFFFFFFFFFFFFFFFFFFFFF AND EQ PUSH2 0x16D JUMPI PUSH1 0x40 MLOAD PUSH32 0x8C379A000000000000000000000000000000000000000000000000000000000 DUP2 MSTORE PUSH1 0x4 ADD PUSH2 0x164 SWAP1 PUSH2 0xA78 JUMP JUMPDEST PUSH1 0x40 MLOAD DUP1 SWAP2 SUB SWAP1 REVERT JUMPDEST PUSH1 0x0 PUSH20 0xFFFFFFFFFFFFFFFFFFFFFFFFFFFFFFFFFFFFFFFF AND DUP2 PUSH20 0xFFFFFFFFFFFFFFFFFFFFFFFFFFFFFFFFFFFFFFFF AND SUB PUSH2 0x1DC JUMPI PUSH1 0x40 MLOAD PUSH32 0x8C379A000000000000000000000000000000000000000000000000000000000 DUP2 MSTORE PUSH1 0x4 ADD PUSH2 0x1D3 SWAP1 PUSH2 0xB0A JUMP JUMPDEST PUSH1 0x40 MLOAD DUP1 SWAP2 SUB SWAP1 REVERT JUMPDEST PUSH2 0x1EA DUP6 PUSH1 0x1 PUSH2 0x3E8 PUSH2 0x1F4 JUMP JUMPDEST SWAP3 POP POP POP SWAP3 SWAP2 POP POP JUMP JUMPDEST PUSH1 0x0 DUP3 DUP3 GT PUSH2 0x238 JUMPI PUSH1 0x40 MLOAD PUSH32 0x8C379A000000000000000000000000000000000000000000000000000000000 DUP2 MSTORE PUSH1 0x4 ADD PUSH2 0x22F SWAP1 PUSH2 0xB76 JUMP JUMPDEST PUSH1 0x40 MLOAD DUP1 SWAP2 SUB SWAP1 REVERT JUMPDEST PUSH1 0x0 PUSH1 0x1 DUP5 DUP5 PUSH2 0x248 SWAP2 SWAP1 PUSH2 0xBC5 JUMP JUMPDEST PUSH2 0x252 SWAP2 SWAP1 PUSH2 0xBF9 JUMP JUMPDEST NUMBER DIFFICULTY TIMESTAMP PUSH1 0x0 PUSH1 0x1 SLOAD DUP11 PUSH1 0x40 MLOAD PUSH1 0x20 ADD PUSH2 0x270 SWAP7 SWAP6 SWAP5 SWAP4 SWAP3 SWAP2 SWAP1 PUSH2 0xD51 JUMP JUMPDEST PUSH1 0x40 MLOAD PUSH1 0x20 DUP2 DUP4 SUB SUB DUP2 MSTORE SWAP1 PUSH1 0x40 MSTORE DUP1 MLOAD SWAP1 PUSH1 0x20 ADD KECCAK256 PUSH1 0x40 MLOAD PUSH1 0x20 ADD PUSH2 0x296 SWAP2 SWAP1 PUSH2 0xDDE JUMP JUMPDEST PUSH1 0x40 MLOAD PUSH1 0x20 DUP2 DUP4 SUB SUB DUP2 MSTORE SWAP1 PUSH1 0x40 MSTORE DUP1 MLOAD SWAP1 PUSH1 0x20 ADD KECCAK256 PUSH1 0x0 SHR PUSH2 0x2B9 SWAP2 SWAP1 PUSH2 0xE28 JUMP JUMPDEST SWAP1 POP PUSH1 0x1 PUSH1 0x0 DUP2 SLOAD DUP1 SWAP3 SWAP2 SWAP1 PUSH2 0x2CE SWAP1 PUSH2 0xE59 JUMP JUMPDEST SWAP2 SWAP1 POP SSTORE POP DUP4 DUP2 PUSH2 0x2DF SWAP2 SWAP1 PUSH2 0xBF9 JUMP JUMPDEST SWAP2 POP POP SWAP4 SWAP3 POP POP POP JUMP JUMPDEST PUSH1 0x0 PUSH2 0x2FC PUSH2 0x2F6 PUSH2 0x32A JUMP JUMPDEST DUP4 PUSH2 0x444 JUMP JUMPDEST SWAP1 POP SWAP2 SWAP1 POP JUMP JUMPDEST PUSH1 0x0 DUP1 PUSH1 0x0 PUSH2 0x312 DUP6 DUP6 PUSH2 0x477 JUMP JUMPDEST SWAP2 POP SWAP2 POP PUSH2 0x31F DUP2 PUSH2 0x4C8 JUMP JUMPDEST DUP2 SWAP3 POP POP POP SWAP3 SWAP2 POP POP JUMP JUMPDEST PUSH1 0x0 PUSH32 0x0 PUSH20 0xFFFFFFFFFFFFFFFFFFFFFFFFFFFFFFFFFFFFFFFF AND ADDRESS PUSH20 0xFFFFFFFFFFFFFFFFFFFFFFFFFFFFFFFFFFFFFFFF AND EQ DUP1 ISZERO PUSH2 0x3A6 JUMPI POP PUSH32 0x0 CHAINID EQ JUMPDEST ISZERO PUSH2 0x3D3 JUMPI PUSH32 0x0 SWAP1 POP PUSH2 0x441 JUMP JUMPDEST PUSH2 0x43E PUSH32 0x0 PUSH32 0x0 PUSH32 0x0 PUSH2 0x62E JUMP JUMPDEST SWAP1 POP JUMPDEST SWAP1 JUMP JUMPDEST PUSH1 0x0 DUP3 DUP3 PUSH1 0x40 MLOAD PUSH1 0x20 ADD PUSH2 0x459 SWAP3 SWAP2 SWAP1 PUSH2 0xEED JUMP JUMPDEST PUSH1 0x40 MLOAD PUSH1 0x20 DUP2 DUP4 SUB SUB DUP2 MSTORE SWAP1 PUSH1 0x40 MSTORE DUP1 MLOAD SWAP1 PUSH1 0x20 ADD KECCAK256 SWAP1 POP SWAP3 SWAP2 POP POP JUMP JUMPDEST PUSH1 0x0 DUP1 PUSH1 0x41 DUP4 MLOAD SUB PUSH2 0x4B8 JUMPI PUSH1 0x0 DUP1 PUSH1 0x0 PUSH1 0x20 DUP7 ADD MLOAD SWAP3 POP PUSH1 0x40 DUP7 ADD MLOAD SWAP2 POP PUSH1 0x60 DUP7 ADD MLOAD PUSH1 0x0 BYTE SWAP1 POP PUSH2 0x4AC DUP8 DUP3 DUP6 DUP6 PUSH2 0x668 JUMP JUMPDEST SWAP5 POP SWAP5 POP POP POP POP PUSH2 0x4C1 JUMP JUMPDEST PUSH1 0x0 PUSH1 0x2 SWAP2 POP SWAP2 POP JUMPDEST SWAP3 POP SWAP3 SWAP1 POP JUMP JUMPDEST PUSH1 0x0 PUSH1 0x4 DUP2 GT ISZERO PUSH2 0x4DC JUMPI PUSH2 0x4DB PUSH2 0xF24 JUMP JUMPDEST JUMPDEST DUP2 PUSH1 0x4 DUP2 GT ISZERO PUSH2 0x4EF JUMPI PUSH2 0x4EE PUSH2 0xF24 JUMP JUMPDEST JUMPDEST SUB ISZERO PUSH2 0x62B JUMPI PUSH1 0x1 PUSH1 0x4 DUP2 GT ISZERO PUSH2 0x509 JUMPI PUSH2 0x508 PUSH2 0xF24 JUMP JUMPDEST JUMPDEST DUP2 PUSH1 0x4 DUP2 GT ISZERO PUSH2 0x51C JUMPI PUSH2 0x51B PUSH2 0xF24 JUMP JUMPDEST JUMPDEST SUB PUSH2 0x55C JUMPI PUSH1 0x40 MLOAD PUSH32 0x8C379A000000000000000000000000000000000000000000000000000000000 DUP2 MSTORE PUSH1 0x4 ADD PUSH2 0x553 SWAP1 PUSH2 0xF9F JUMP JUMPDEST PUSH1 0x40 MLOAD DUP1 SWAP2 SUB SWAP1 REVERT JUMPDEST PUSH1 0x2 PUSH1 0x4 DUP2 GT ISZERO PUSH2 0x570 JUMPI PUSH2 0x56F PUSH2 0xF24 JUMP JUMPDEST JUMPDEST DUP2 PUSH1 0x4 DUP2 GT ISZERO PUSH2 0x583 JUMPI PUSH2 0x582 PUSH2 0xF24 JUMP JUMPDEST JUMPDEST SUB PUSH2 0x5C3 JUMPI PUSH1 0x40 MLOAD PUSH32 0x8C379A000000000000000000000000000000000000000000000000000000000 DUP2 MSTORE PUSH1 0x4 ADD PUSH2 0x5BA SWAP1 PUSH2 0x100B JUMP JUMPDEST PUSH1 0x40 MLOAD DUP1 SWAP2 SUB SWAP1 REVERT JUMPDEST PUSH1 0x3 PUSH1 0x4 DUP2 GT ISZERO PUSH2 0x5D7 JUMPI PUSH2 0x5D6 PUSH2 0xF24 JUMP JUMPDEST JUMPDEST DUP2 PUSH1 0x4 DUP2 GT ISZERO PUSH2 0x5EA JUMPI PUSH2 0x5E9 PUSH2 0xF24 JUMP JUMPDEST JUMPDEST SUB PUSH2 0x62A JUMPI PUSH1 0x40 MLOAD PUSH32 0x8C379A000000000000000000000000000000000000000000000000000000000 DUP2 MSTORE PUSH1 0x4 ADD PUSH2 0x621 SWAP1 PUSH2 0x109D JUMP JUMPDEST PUSH1 0x40 MLOAD DUP1 SWAP2 SUB SWAP1 REVERT JUMPDEST JUMPDEST POP JUMP JUMPDEST PUSH1 0x0 DUP4 DUP4 DUP4 CHAINID ADDRESS PUSH1 0x40 MLOAD PUSH1 0x20 ADD PUSH2 0x649 SWAP6 SWAP5 SWAP4 SWAP3 SWAP2 SWAP1 PUSH2 0x10FE JUMP JUMPDEST PUSH1 0x40 MLOAD PUSH1 0x20 DUP2 DUP4 SUB SUB DUP2 MSTORE SWAP1 PUSH1 0x40 MSTORE DUP1 MLOAD SWAP1 PUSH1 0x20 ADD KECCAK256 SWAP1 POP SWAP4 SWAP3 POP POP POP JUMP JUMPDEST PUSH1 0x0 DUP1 PUSH32 0x7FFFFFFFFFFFFFFFFFFFFFFFFFFFFFFF5D576E7357A4501DDFE92F46681B20A0 DUP4 PUSH1 0x0 SHR GT ISZERO PUSH2 0x6A3 JUMPI PUSH1 0x0 PUSH1 0x3 SWAP2 POP SWAP2 POP PUSH2 0x741 JUMP JUMPDEST PUSH1 0x0 PUSH1 0x1 DUP8 DUP8 DUP8 DUP8 PUSH1 0x40 MLOAD PUSH1 0x0 DUP2 MSTORE PUSH1 0x20 ADD PUSH1 0x40 MSTORE PUSH1 0x40 MLOAD PUSH2 0x6C8 SWAP5 SWAP4 SWAP3 SWAP2 SWAP1 PUSH2 0x116D JUMP JUMPDEST PUSH1 0x20 PUSH1 0x40 MLOAD PUSH1 0x20 DUP2 SUB SWAP1 DUP1 DUP5 SUB SWAP1 DUP6 GAS STATICCALL ISZERO DUP1 ISZERO PUSH2 0x6EA JUMPI RETURNDATASIZE PUSH1 0x0 DUP1 RETURNDATACOPY RETURNDATASIZE PUSH1 0x0 REVERT JUMPDEST POP POP POP PUSH1 0x20 PUSH1 0x40 MLOAD SUB MLOAD SWAP1 POP PUSH1 0x0 PUSH20 0xFFFFFFFFFFFFFFFFFFFFFFFFFFFFFFFFFFFFFFFF AND DUP2 PUSH20 0xFFFFFFFFFFFFFFFFFFFFFFFFFFFFFFFFFFFFFFFF AND SUB PUSH2 0x738 JUMPI PUSH1 0x0 PUSH1 0x1 SWAP3 POP SWAP3 POP POP PUSH2 0x741 JUMP JUMPDEST DUP1 PUSH1 0x0 SWAP3 POP SWAP3 POP POP JUMPDEST SWAP5 POP SWAP5 SWAP3 POP POP POP JUMP JUMPDEST PUSH1 0x0 PUSH1 0x40 MLOAD SWAP1 POP SWAP1 JUMP JUMPDEST PUSH1 0x0 DUP1 REVERT JUMPDEST PUSH1 0x0 DUP1 REVERT JUMPDEST PUSH1 0x0 DUP2 SWAP1 POP SWAP2 SWAP1 POP JUMP JUMPDEST PUSH2 0x771 DUP2 PUSH2 0x75E JUMP JUMPDEST DUP2 EQ PUSH2 0x77C JUMPI PUSH1 0x0 DUP1 REVERT JUMPDEST POP JUMP JUMPDEST PUSH1 0x0 DUP2 CALLDATALOAD SWAP1 POP PUSH2 0x78E DUP2 PUSH2 0x768 JUMP JUMPDEST SWAP3 SWAP2 POP POP JUMP JUMPDEST PUSH1 0x0 DUP1 REVERT JUMPDEST PUSH1 0x0 DUP1 REVERT JUMPDEST PUSH1 0x0 PUSH1 0x1F NOT PUSH1 0x1F DUP4 ADD AND SWAP1 POP SWAP2 SWAP1 POP JUMP JUMPDEST PUSH32 0x4E487B7100000000000000000000000000000000000000000000000000000000 PUSH1 0x0 MSTORE PUSH1 0x41 PUSH1 0x4 MSTORE PUSH1 0x24 PUSH1 0x0 REVERT JUMPDEST PUSH2 0x7E7 DUP3 PUSH2 0x79E JUMP JUMPDEST DUP2 ADD DUP2 DUP2 LT PUSH8 0xFFFFFFFFFFFFFFFF DUP3 GT OR ISZERO PUSH2 0x806 JUMPI PUSH2 0x805 PUSH2 0x7AF JUMP JUMPDEST JUMPDEST DUP1 PUSH1 0x40 MSTORE POP POP POP JUMP JUMPDEST PUSH1 0x0 PUSH2 0x819 PUSH2 0x74A JUMP JUMPDEST SWAP1 POP PUSH2 0x825 DUP3 DUP3 PUSH2 0x7DE JUMP JUMPDEST SWAP2 SWAP1 POP JUMP JUMPDEST PUSH1 0x0 PUSH8 0xFFFFFFFFFFFFFFFF DUP3 GT ISZERO PUSH2 0x845 JUMPI PUSH2 0x844 PUSH2 0x7AF JUMP JUMPDEST JUMPDEST PUSH2 0x84E DUP3 PUSH2 0x79E JUMP JUMPDEST SWAP1 POP PUSH1 0x20 DUP2 ADD SWAP1 POP SWAP2 SWAP1 POP JUMP JUMPDEST DUP3 DUP2 DUP4 CALLDATACOPY PUSH1 0x0 DUP4 DUP4 ADD MSTORE POP POP POP JUMP JUMPDEST PUSH1 0x0 PUSH2 0x87D PUSH2 0x878 DUP5 PUSH2 0x82A JUMP JUMPDEST PUSH2 0x80F JUMP JUMPDEST SWAP1 POP DUP3 DUP2 MSTORE PUSH1 0x20 DUP2 ADD DUP5 DUP5 DUP5 ADD GT ISZERO PUSH2 0x899 JUMPI PUSH2 0x898 PUSH2 0x799 JUMP JUMPDEST JUMPDEST PUSH2 0x8A4 DUP5 DUP3 DUP6 PUSH2 0x85B JUMP JUMPDEST POP SWAP4 SWAP3 POP POP POP JUMP JUMPDEST PUSH1 0x0 DUP3 PUSH1 0x1F DUP4 ADD SLT PUSH2 0x8C1 JUMPI PUSH2 0x8C0 PUSH2 0x794 JUMP JUMPDEST JUMPDEST DUP2 CALLDATALOAD PUSH2 0x8D1 DUP5 DUP3 PUSH1 0x20 DUP7 ADD PUSH2 0x86A JUMP JUMPDEST SWAP2 POP POP SWAP3 SWAP2 POP POP JUMP JUMPDEST PUSH1 0x0 DUP1 PUSH1 0x40 DUP4 DUP6 SUB SLT ISZERO PUSH2 0x8F1 JUMPI PUSH2 0x8F0 PUSH2 0x754 JUMP JUMPDEST JUMPDEST PUSH1 0x0 PUSH2 0x8FF DUP6 DUP3 DUP7 ADD PUSH2 0x77F JUMP JUMPDEST SWAP3 POP POP PUSH1 0x20 DUP4 ADD CALLDATALOAD PUSH8 0xFFFFFFFFFFFFFFFF DUP2 GT ISZERO PUSH2 0x920 JUMPI PUSH2 0x91F PUSH2 0x759 JUMP JUMPDEST JUMPDEST PUSH2 0x92C DUP6 DUP3 DUP7 ADD PUSH2 0x8AC JUMP JUMPDEST SWAP2 POP POP SWAP3 POP SWAP3 SWAP1 POP JUMP JUMPDEST PUSH2 0x93F DUP2 PUSH2 0x75E JUMP JUMPDEST DUP3 MSTORE POP POP JUMP JUMPDEST PUSH1 0x0 PUSH1 0x20 DUP3 ADD SWAP1 POP PUSH2 0x95A PUSH1 0x0 DUP4 ADD DUP5 PUSH2 0x936 JUMP JUMPDEST SWAP3 SWAP2 POP POP JUMP JUMPDEST PUSH1 0x0 DUP1 PUSH1 0x0 PUSH1 0x60 DUP5 DUP7 SUB SLT ISZERO PUSH2 0x979 JUMPI PUSH2 0x978 PUSH2 0x754 JUMP JUMPDEST JUMPDEST PUSH1 0x0 PUSH2 0x987 DUP7 DUP3 DUP8 ADD PUSH2 0x77F JUMP JUMPDEST SWAP4 POP POP PUSH1 0x20 PUSH2 0x998 DUP7 DUP3 DUP8 ADD PUSH2 0x77F JUMP JUMPDEST SWAP3 POP POP PUSH1 0x40 PUSH2 0x9A9 DUP7 DUP3 DUP8 ADD PUSH2 0x77F JUMP JUMPDEST SWAP2 POP POP SWAP3 POP SWAP3 POP SWAP3 JUMP JUMPDEST PUSH1 0x0 DUP2 SWAP1 POP SWAP2 SWAP1 POP JUMP JUMPDEST PUSH2 0x9C6 DUP2 PUSH2 0x9B3 JUMP JUMPDEST DUP3 MSTORE POP POP JUMP JUMPDEST PUSH1 0x0 PUSH1 0x40 DUP3 ADD SWAP1 POP PUSH2 0x9E1 PUSH1 0x0 DUP4 ADD DUP6 PUSH2 0x9BD JUMP JUMPDEST PUSH2 0x9EE PUSH1 0x20 DUP4 ADD DUP5 PUSH2 0x936 JUMP JUMPDEST SWAP4 SWAP3 POP POP POP JUMP JUMPDEST PUSH1 0x0 DUP3 DUP3 MSTORE PUSH1 0x20 DUP3 ADD SWAP1 POP SWAP3 SWAP2 POP POP JUMP JUMPDEST PUSH32 0x4D65737361676556657269666965723A20696E76616C6964207369676E617475 PUSH1 0x0 DUP3 ADD MSTORE PUSH32 0x7265000000000000000000000000000000000000000000000000000000000000 PUSH1 0x20 DUP3 ADD MSTORE POP JUMP JUMPDEST PUSH1 0x0 PUSH2 0xA62 PUSH1 0x22 DUP4 PUSH2 0x9F5 JUMP JUMPDEST SWAP2 POP PUSH2 0xA6D DUP3 PUSH2 0xA06 JUMP JUMPDEST PUSH1 0x40 DUP3 ADD SWAP1 POP SWAP2 SWAP1 POP JUMP JUMPDEST PUSH1 0x0 PUSH1 0x20 DUP3 ADD SWAP1 POP DUP2 DUP2 SUB PUSH1 0x0 DUP4 ADD MSTORE PUSH2 0xA91 DUP2 PUSH2 0xA55 JUMP JUMPDEST SWAP1 POP SWAP2 SWAP1 POP JUMP JUMPDEST PUSH32 0x45434453415570677261646561626C653A20696E76616C6964207369676E6174 PUSH1 0x0 DUP3 ADD MSTORE PUSH32 0x7572650000000000000000000000000000000000000000000000000000000000 PUSH1 0x20 DUP3 ADD MSTORE POP JUMP JUMPDEST PUSH1 0x0 PUSH2 0xAF4 PUSH1 0x23 DUP4 PUSH2 0x9F5 JUMP JUMPDEST SWAP2 POP PUSH2 0xAFF DUP3 PUSH2 0xA98 JUMP JUMPDEST PUSH1 0x40 DUP3 ADD SWAP1 POP SWAP2 SWAP1 POP JUMP JUMPDEST PUSH1 0x0 PUSH1 0x20 DUP3 ADD SWAP1 POP DUP2 DUP2 SUB PUSH1 0x0 DUP4 ADD MSTORE PUSH2 0xB23 DUP2 PUSH2 0xAE7 JUMP JUMPDEST SWAP1 POP SWAP2 SWAP1 POP JUMP JUMPDEST PUSH32 0x52616E6765206973206E6F742076616C69640000000000000000000000000000 PUSH1 0x0 DUP3 ADD MSTORE POP JUMP JUMPDEST PUSH1 0x0 PUSH2 0xB60 PUSH1 0x12 DUP4 PUSH2 0x9F5 JUMP JUMPDEST SWAP2 POP PUSH2 0xB6B DUP3 PUSH2 0xB2A JUMP JUMPDEST PUSH1 0x20 DUP3 ADD SWAP1 POP SWAP2 SWAP1 POP JUMP JUMPDEST PUSH1 0x0 PUSH1 0x20 DUP3 ADD SWAP1 POP DUP2 DUP2 SUB PUSH1 0x0 DUP4 ADD MSTORE PUSH2 0xB8F DUP2 PUSH2 0xB53 JUMP JUMPDEST SWAP1 POP SWAP2 SWAP1 POP JUMP JUMPDEST PUSH32 0x4E487B7100000000000000000000000000000000000000000000000000000000 PUSH1 0x0 MSTORE PUSH1 0x11 PUSH1 0x4 MSTORE PUSH1 0x24 PUSH1 0x0 REVERT JUMPDEST PUSH1 0x0 PUSH2 0xBD0 DUP3 PUSH2 0x75E JUMP JUMPDEST SWAP2 POP PUSH2 0xBDB DUP4 PUSH2 0x75E JUMP JUMPDEST SWAP3 POP DUP3 DUP3 SUB SWAP1 POP DUP2 DUP2 GT ISZERO PUSH2 0xBF3 JUMPI PUSH2 0xBF2 PUSH2 0xB96 JUMP JUMPDEST JUMPDEST SWAP3 SWAP2 POP POP JUMP JUMPDEST PUSH1 0x0 PUSH2 0xC04 DUP3 PUSH2 0x75E JUMP JUMPDEST SWAP2 POP PUSH2 0xC0F DUP4 PUSH2 0x75E JUMP JUMPDEST SWAP3 POP DUP3 DUP3 ADD SWAP1 POP DUP1 DUP3 GT ISZERO PUSH2 0xC27 JUMPI PUSH2 0xC26 PUSH2 0xB96 JUMP JUMPDEST JUMPDEST SWAP3 SWAP2 POP POP JUMP JUMPDEST PUSH1 0x0 DUP2 SWAP1 POP SWAP2 SWAP1 POP JUMP JUMPDEST PUSH2 0xC48 PUSH2 0xC43 DUP3 PUSH2 0x75E JUMP JUMPDEST PUSH2 0xC2D JUMP JUMPDEST DUP3 MSTORE POP POP JUMP JUMPDEST PUSH32 0x4E487B7100000000000000000000000000000000000000000000000000000000 PUSH1 0x0 MSTORE PUSH1 0x22 PUSH1 0x4 MSTORE PUSH1 0x24 PUSH1 0x0 REVERT JUMPDEST PUSH1 0x0 PUSH1 0x2 DUP3 DIV SWAP1 POP PUSH1 0x1 DUP3 AND DUP1 PUSH2 0xC95 JUMPI PUSH1 0x7F DUP3 AND SWAP2 POP JUMPDEST PUSH1 0x20 DUP3 LT DUP2 SUB PUSH2 0xCA8 JUMPI PUSH2 0xCA7 PUSH2 0xC4E JUMP JUMPDEST JUMPDEST POP SWAP2 SWAP1 POP JUMP JUMPDEST PUSH1 0x0 DUP2 SWAP1 POP SWAP3 SWAP2 POP POP JUMP JUMPDEST PUSH1 0x0 DUP2 SWAP1 POP DUP2 PUSH1 0x0 MSTORE PUSH1 0x20 PUSH1 0x0 KECCAK256 SWAP1 POP SWAP2 SWAP1 POP JUMP JUMPDEST PUSH1 0x0 DUP2 SLOAD PUSH2 0xCDB DUP2 PUSH2 0xC7D JUMP JUMPDEST PUSH2 0xCE5 DUP2 DUP7 PUSH2 0xCAE JUMP JUMPDEST SWAP5 POP PUSH1 0x1 DUP3 AND PUSH1 0x0 DUP2 EQ PUSH2 0xD00 JUMPI PUSH1 0x1 DUP2 EQ PUSH2 0xD15 JUMPI PUSH2 0xD48 JUMP JUMPDEST PUSH1 0xFF NOT DUP4 AND DUP7 MSTORE DUP2 ISZERO ISZERO DUP3 MUL DUP7 ADD SWAP4 POP PUSH2 0xD48 JUMP JUMPDEST PUSH2 0xD1E DUP6 PUSH2 0xCB9 JUMP JUMPDEST PUSH1 0x0 JUMPDEST DUP4 DUP2 LT ISZERO PUSH2 0xD40 JUMPI DUP2 SLOAD DUP2 DUP10 ADD MSTORE PUSH1 0x1 DUP3 ADD SWAP2 POP PUSH1 0x20 DUP2 ADD SWAP1 POP PUSH2 0xD21 JUMP JUMPDEST DUP4 DUP9 ADD SWAP6 POP POP POP JUMPDEST POP POP POP SWAP3 SWAP2 POP POP JUMP JUMPDEST PUSH1 0x0 PUSH2 0xD5D DUP3 DUP10 PUSH2 0xC37 JUMP JUMPDEST PUSH1 0x20 DUP3 ADD SWAP2 POP PUSH2 0xD6D DUP3 DUP9 PUSH2 0xC37 JUMP JUMPDEST PUSH1 0x20 DUP3 ADD SWAP2 POP PUSH2 0xD7D DUP3 DUP8 PUSH2 0xC37 JUMP JUMPDEST PUSH1 0x20 DUP3 ADD SWAP2 POP PUSH2 0xD8D DUP3 DUP7 PUSH2 0xCCE JUMP JUMPDEST SWAP2 POP PUSH2 0xD99 DUP3 DUP6 PUSH2 0xC37 JUMP JUMPDEST PUSH1 0x20 DUP3 ADD SWAP2 POP PUSH2 0xDA9 DUP3 DUP5 PUSH2 0xC37 JUMP JUMPDEST PUSH1 0x20 DUP3 ADD SWAP2 POP DUP2 SWAP1 POP SWAP8 SWAP7 POP POP POP POP POP POP POP JUMP JUMPDEST PUSH1 0x0 DUP2 SWAP1 POP SWAP2 SWAP1 POP JUMP JUMPDEST PUSH2 0xDD8 PUSH2 0xDD3 DUP3 PUSH2 0x9B3 JUMP JUMPDEST PUSH2 0xDBD JUMP JUMPDEST DUP3 MSTORE POP POP JUMP JUMPDEST PUSH1 0x0 PUSH2 0xDEA DUP3 DUP5 PUSH2 0xDC7 JUMP JUMPDEST PUSH1 0x20 DUP3 ADD SWAP2 POP DUP2 SWAP1 POP SWAP3 SWAP2 POP POP JUMP JUMPDEST PUSH32 0x4E487B7100000000000000000000000000000000000000000000000000000000 PUSH1 0x0 MSTORE PUSH1 0x12 PUSH1 0x4 MSTORE PUSH1 0x24 PUSH1 0x0 REVERT JUMPDEST PUSH1 0x0 PUSH2 0xE33 DUP3 PUSH2 0x75E JUMP JUMPDEST SWAP2 POP PUSH2 0xE3E DUP4 PUSH2 0x75E JUMP JUMPDEST SWAP3 POP DUP3 PUSH2 0xE4E JUMPI PUSH2 0xE4D PUSH2 0xDF9 JUMP JUMPDEST JUMPDEST DUP3 DUP3 MOD SWAP1 POP SWAP3 SWAP2 POP POP JUMP JUMPDEST PUSH1 0x0 PUSH2 0xE64 DUP3 PUSH2 0x75E JUMP JUMPDEST SWAP2 POP PUSH32 0xFFFFFFFFFFFFFFFFFFFFFFFFFFFFFFFFFFFFFFFFFFFFFFFFFFFFFFFFFFFFFFFF DUP3 SUB PUSH2 0xE96 JUMPI PUSH2 0xE95 PUSH2 0xB96 JUMP JUMPDEST JUMPDEST PUSH1 0x1 DUP3 ADD SWAP1 POP SWAP2 SWAP1 POP JUMP JUMPDEST PUSH32 0x1901000000000000000000000000000000000000000000000000000000000000 PUSH1 0x0 DUP3 ADD MSTORE POP JUMP JUMPDEST PUSH1 0x0 PUSH2 0xED7 PUSH1 0x2 DUP4 PUSH2 0xCAE JUMP JUMPDEST SWAP2 POP PUSH2 0xEE2 DUP3 PUSH2 0xEA1 JUMP JUMPDEST PUSH1 0x2 DUP3 ADD SWAP1 POP SWAP2 SWAP1 POP JUMP JUMPDEST PUSH1 0x0 PUSH2 0xEF8 DUP3 PUSH2 0xECA JUMP JUMPDEST SWAP2 POP PUSH2 0xF04 DUP3 DUP6 PUSH2 0xDC7 JUMP JUMPDEST PUSH1 0x20 DUP3 ADD SWAP2 POP PUSH2 0xF14 DUP3 DUP5 PUSH2 0xDC7 JUMP JUMPDEST PUSH1 0x20 DUP3 ADD SWAP2 POP DUP2 SWAP1 POP SWAP4 SWAP3 POP POP POP JUMP JUMPDEST PUSH32 0x4E487B7100000000000000000000000000000000000000000000000000000000 PUSH1 0x0 MSTORE PUSH1 0x21 PUSH1 0x4 MSTORE PUSH1 0x24 PUSH1 0x0 REVERT JUMPDEST PUSH32 0x45434453413A20696E76616C6964207369676E61747572650000000000000000 PUSH1 0x0 DUP3 ADD MSTORE POP JUMP JUMPDEST PUSH1 0x0 PUSH2 0xF89 PUSH1 0x18 DUP4 PUSH2 0x9F5 JUMP JUMPDEST SWAP2 POP PUSH2 0xF94 DUP3 PUSH2 0xF53 JUMP JUMPDEST PUSH1 0x20 DUP3 ADD SWAP1 POP SWAP2 SWAP1 POP JUMP JUMPDEST PUSH1 0x0 PUSH1 0x20 DUP3 ADD SWAP1 POP DUP2 DUP2 SUB PUSH1 0x0 DUP4 ADD MSTORE PUSH2 0xFB8 DUP2 PUSH2 0xF7C JUMP JUMPDEST SWAP1 POP SWAP2 SWAP1 POP JUMP JUMPDEST PUSH32 0x45434453413A20696E76616C6964207369676E6174757265206C656E67746800 PUSH1 0x0 DUP3 ADD MSTORE POP JUMP JUMPDEST PUSH1 0x0 PUSH2 0xFF5 PUSH1 0x1F DUP4 PUSH2 0x9F5 JUMP JUMPDEST SWAP2 POP PUSH2 0x1000 DUP3 PUSH2 0xFBF JUMP JUMPDEST PUSH1 0x20 DUP3 ADD SWAP1 POP SWAP2 SWAP1 POP JUMP JUMPDEST PUSH1 0x0 PUSH1 0x20 DUP3 ADD SWAP1 POP DUP2 DUP2 SUB PUSH1 0x0 DUP4 ADD MSTORE PUSH2 0x1024 DUP2 PUSH2 0xFE8 JUMP JUMPDEST SWAP1 POP SWAP2 SWAP1 POP JUMP JUMPDEST PUSH32 0x45434453413A20696E76616C6964207369676E6174757265202773272076616C PUSH1 0x0 DUP3 ADD MSTORE PUSH32 0x7565000000000000000000000000000000000000000000000000000000000000 PUSH1 0x20 DUP3 ADD MSTORE POP JUMP JUMPDEST PUSH1 0x0 PUSH2 0x1087 PUSH1 0x22 DUP4 PUSH2 0x9F5 JUMP JUMPDEST SWAP2 POP PUSH2 0x1092 DUP3 PUSH2 0x102B JUMP JUMPDEST PUSH1 0x40 DUP3 ADD SWAP1 POP SWAP2 SWAP1 POP JUMP JUMPDEST PUSH1 0x0 PUSH1 0x20 DUP3 ADD SWAP1 POP DUP2 DUP2 SUB PUSH1 0x0 DUP4 ADD MSTORE PUSH2 0x10B6 DUP2 PUSH2 0x107A JUMP JUMPDEST SWAP1 POP SWAP2 SWAP1 POP JUMP JUMPDEST PUSH1 0x0 PUSH20 0xFFFFFFFFFFFFFFFFFFFFFFFFFFFFFFFFFFFFFFFF DUP3 AND SWAP1 POP SWAP2 SWAP1 POP JUMP JUMPDEST PUSH1 0x0 PUSH2 0x10E8 DUP3 PUSH2 0x10BD JUMP JUMPDEST SWAP1 POP SWAP2 SWAP1 POP JUMP JUMPDEST PUSH2 0x10F8 DUP2 PUSH2 0x10DD JUMP JUMPDEST DUP3 MSTORE POP POP JUMP JUMPDEST PUSH1 0x0 PUSH1 0xA0 DUP3 ADD SWAP1 POP PUSH2 0x1113 PUSH1 0x0 DUP4 ADD DUP9 PUSH2 0x9BD JUMP JUMPDEST PUSH2 0x1120 PUSH1 0x20 DUP4 ADD DUP8 PUSH2 0x9BD JUMP JUMPDEST PUSH2 0x112D PUSH1 0x40 DUP4 ADD DUP7 PUSH2 0x9BD JUMP JUMPDEST PUSH2 0x113A PUSH1 0x60 DUP4 ADD DUP6 PUSH2 0x936 JUMP JUMPDEST PUSH2 0x1147 PUSH1 0x80 DUP4 ADD DUP5 PUSH2 0x10EF JUMP JUMPDEST SWAP7 SWAP6 POP POP POP POP POP POP JUMP JUMPDEST PUSH1 0x0 PUSH1 0xFF DUP3 AND SWAP1 POP SWAP2 SWAP1 POP JUMP JUMPDEST PUSH2 0x1167 DUP2 PUSH2 0x1151 JUMP JUMPDEST DUP3 MSTORE POP POP JUMP JUMPDEST PUSH1 0x0 PUSH1 0x80 DUP3 ADD SWAP1 POP PUSH2 0x1182 PUSH1 0x0 DUP4 ADD DUP8 PUSH2 0x9BD JUMP JUMPDEST PUSH2 0x118F PUSH1 0x20 DUP4 ADD DUP7 PUSH2 0x115E JUMP JUMPDEST PUSH2 0x119C PUSH1 0x40 DUP4 ADD DUP6 PUSH2 0x9BD JUMP JUMPDEST PUSH2 0x11A9 PUSH1 0x60 DUP4 ADD DUP5 PUSH2 0x9BD JUMP JUMPDEST SWAP6 SWAP5 POP POP POP POP POP JUMP INVALID LOG2 PUSH5 0x6970667358 0x22 SLT KECCAK256 NOT PUSH4 0xD42A9A7A 0xCA 0xD9 0xDD DUP3 SGT SGT 0xD7 SWAP14 COINBASE 0xD5 STOP MLOAD 0xB6 0x2E PC 0xEA EXP ADDMOD PUSH24 0x2F1EC0BCC17B9564736F6C63430008110033000000000000 "},"methodIdentifiers":{"_getRandomNumberInRange(uint256,uint256,uint256)":"37b44df3","validateAmountFunction(uint256,bytes)":"173c688d"}}}}}